:020000040800F2
:10000000C82D0020791300086D0200086F02000857
:1000100073020008770200087B020008000000005D
:100020000000000000000000000000007F02000847
:100030008102000800000000830200088502000819
:1000400093130008931300089313000893130008F8
:1000500093130008931300089313000893130008E8
:1000600093130008931300089313000893130008D8
:1000700093130008931300089313000893130008C8
:1000800093130008931300089313000893130008B8
:1000900093130008931300089313000893130008A8
:1000A0009313000893130008931300089313000898
:1000B0009313000893130008931300089313000888
:1000C0009313000893130008931300089313000878
:1000D00093130008EF12000893130008931300080D
:1000E0009313000893130008931300089313000858
:1000F0009313000893130008931300089313000848
:100100009313000893130008931300089313000837
:100110009313000893130008931300089313000827
:100120009313000893130008931300089313000817
:1001300000F002F800F05AF80AA090E8000C82449F
:100140008344AAF10107DA4501D100F04FF8AFF27C
:10015000090EBAE80F0013F0010F18BFFB1A43F0A5
:1001600001031847FC5A00001C5B00000A444FF0D2
:10017000000C10F8013B13F0070408BF10F8014B06
:100180001D1108BF10F8015B641E05D010F8016B4B
:10019000641E01F8016BF9D113F0080F1EBF10F8AF
:1001A000014BAD1C0C1B09D16D1E58BF01F801CBD2
:1001B000FAD505E014F8016B01F8016B6D1EF9D555
:1001C0009142D6D37047000000230024002500266A
:1001D000103A28BF78C1FBD8520728BF30C148BFAA
:1001E0000B6070471FB51FBD10B510BD03F095FF24
:1001F0001146FFF7F7FF00F009F803F0B3FF03B46F
:10020000FFF7F2FF03BC01F017F8000000F0AAFFAF
:100210004FF4A06001F0D0F800F07EFF00F0FEFE89
:1002200000F022F900F010FA10E009A000F0AAFE98
:1002300000F0A4FC0C48006808B9012000E0002090
:10024000094908604FF4C87000F0C9FFEDE70000ED
:1002500068747470733A2F2F6769746875622E63BF
:100260006F6D2F7768696B0094812142704700BFE2
:10027000FEE700BFFEE700BFFEE700BFFEE77047F6
:1002800070477047704700000CB500200190009047
:100290006C48006840F480306A49086000BF6948D3
:1002A000006800F4003000900198401C0190009814
:1002B00018B90198B0F5A06FF1D16248006800F458
:1002C000003010B10120009001E000200090009863
:1002D000012843D15C48006840F010005A4908608A
:1002E0000846006820F0030008600846006840F0F7
:1002F0000200086053484068524948600846406818
:1003000048600846406840F480604860084640689D
:1003100020F47C1048600846406840F4E8104860CB
:100320000846006840F08070086000BF45480068DB
:1003300000F000700028F9D04248406820F0030027
:10034000404948600846406840F00200486000BFED
:100350003C48406800F00C000828F9D10CBD10B5ED
:10036000FFF792FF10BD10B53648006840F001005D
:1003700034490860084640683449084031494860BB
:1003800008460068324908402E490860084600685F
:1003900020F4802008600846406820F4FE00486091
:1003A0004FF41F008860FFF7DAFF4FF00060294923
:1003B000086010BD10B5002100200022214B5B68B1
:1003C00003F00C0121B1042906D0082928D107E047
:1003D000214B224C236027E01F4B204C236023E05D
:1003E000184B5B6803F47010164B5B6803F48032A3
:1003F000022303EB904022B9194B4343174C23606F
:100400000DE0104B5B6803F4003323B1144B4343FE
:10041000124C236003E0104B4343104C236003E075
:100420000D4B0E4C236000BF00BF064B5B68C3F34F
:1004300003130C4CE15C094B1B68CB40074C236059
:1004400010BD000000100240002002400000FFF834
:10045000FFFFF6FE08ED00E000127A000000002029
:1004600000093D000400002008B510208DF80300AD
:100470004FF4F060ADF8000003208DF802006946EB
:10048000FE4801F067F808BD08210022FC4B1A6005
:10049000FC4BC3F89C21002117E000F0800222B140
:1004A0000122F74B083B1A6003E00022F44B083BA3
:1004B0001A600122F24B0C3B1A600022F14BC3F888
:1004C0009C214206100E4A1CD1B20829E5DB704778
:1004D00030B504460D46B02101EBE501C8B2FFF787
:1004E000D3FF102141EA1410FFF7CEFF04F00F01F3
:1004F00041F00100FFF7C8FF30BD70B505460E465C
:10050000144631462846FFF7E3FF0120DC49086026
:100510000020DC49C1F89C0124B10120D8490839E8
:10052000086003E00020D649083908600120D4495A
:100530000C3908600020D349C1F89C0170BD082126
:100540000122CF4B1A600022CE4BC3F89C21002120
:1005500017E000F0800222B10122C94B083B1A606B
:1005600003E00022C64B083B1A600122C44B0C3B3F
:100570001A600022C34BC3F89C214206100E4A1C8D
:10058000D1B20829E5DB704708210122BC4B1A6073
:100590000022BC4BC3F89C21002117E000F0800230
:1005A00022B10022B64B083B1A6003E00122B44B93
:1005B000083B1A600122B24B0C3B1A600022B14B7F
:1005C000C3F89C214206100E4A1CD1B20829E5DB73
:1005D000704700B58D20FFF757FF1420FFF754FF39
:1005E000AF20FFF751FF00BD00B58D20FFF74CFF96
:1005F0001020FFF749FFAE20FFF746FF00BD30B5E2
:10060000002415E004F1B001C8B2FFF73DFF00205F
:10061000FFF73AFF1020FFF737FF002504E0002026
:10062000FFF78DFF681CC5B2802DF8DB601CC4B2DB
:10063000082CE7DB30BD10B504468120FFF724FF0E
:100640002046FFF721FF10BD10B501208C49091F7E
:100650000860642000F0C3FD00208A49C1F8A401AD
:10066000642000F0BCFD01208549091F0860AE2010
:10067000FFF70AFFD520FFF707FF8020FFF704FFF1
:10068000A820FFF701FF3F20FFF7FEFED320FFF772
:10069000FBFE0020FFF7F8FE4020FFF7F5FE8D205F
:1006A000FFF7F2FE1420FFF7EFFE2020FFF7ECFE2D
:1006B0000220FFF7E9FEA120FFF7E6FEC820FFF7C2
:1006C000E3FEDA20FFF7E0FE1220FFF7DDFE8120D7
:1006D000FFF7DAFE7F20FFF7D7FED920FFF7D4FE21
:1006E000F120FFF7D1FEDB20FFF7CEFE3020FFF731
:1006F000CBFEA420FFF7C8FEA620FFF7C5FEAF2063
:10070000FFF7C2FEFFF77BFF00210846FFF7E0FE80
:1007100010BD30B504460D4605F1B001C8B2FFF773
:10072000B3FE102141EA1410FFF7AEFE04F00F01F2
:1007300041F00100FFF7A8FE30BD2DE9F04F06465D
:100740000F4690461C46DDF824A04FF0000BE11741
:1007500004EB5171C910A4EBC10131B92046E11776
:1007600004EB5171C1F3C70506E02046E11704EB25
:100770005171C910491CCDB23D4615E0294630469D
:10078000FFF7C7FFB1460BE059464A1C1FFA82FB30
:100790001AF80100FFF7D3FE09F1010000F0FF098C
:1007A000C145F1DB681CC5B2A542E7DBBDE8F08FAF
:1007B0002DE9F04106460D461746A7F1200000F04E
:1007C000FF082A07110EF206100EFFF781FE002423
:1007D00007E02D4901EB0811085DFFF7B0FE601C32
:1007E000C4B2082CF5DB082202EB0512D1B2F206E6
:1007F000100EFFF76DFE002409E0234901EB0812FB
:1008000004F10801505CFFF79AFE601CC4B2082C8A
:10081000F3DBBDE8F08170B505460E46144607E0EF
:1008200014F8012B31462846FFF7C2FF681CC5B2F9
:1008300020780028F4D170BD38B5144808238022F0
:10084000002100900846FFF778FF11A20321002045
:10085000FFF7E1FF05240CE004F13000C2B20321F0
:100860000C20FFF7A5FF4FF4487000F0B8FC601EA5
:10087000C4B2002CF0DCFFF7C2FE0FE0001801400C
:10088000A8012342000023429E43000814080020D0
:100890005374617274696E672E2E2E004FF4487087
:1008A00000F09DFCB1480223802200210090084600
:1008B000FFF743FF4FF47A7000F091FC38BDF0B5BC
:1008C00007460E46154631463846FFF722FF0024FC
:1008D00007E0A74A02EB8511085DFFF730FE601CB8
:1008E000C4B2102CF5DB701CC1B23846FFF711FF03
:1008F000002409E06900491C9D4A02EB4111085D92
:10090000FFF71DFE601CC4B2102CF3DBF0BD2DE917
:10091000F04106460D461746A7F1200000F0FF08FB
:100920002A07110EF206100EFFF7D2FD002407E091
:10093000904901EB0811085DFFF726FE601CC4B268
:10094000082CF5DB082202EB0512D1B2F206100EDC
:10095000FFF7BEFD002409E0864901EB081204F10F
:100960000801505CFFF710FE601CC4B2082CF3DBDA
:10097000BDE8F08170B504460D461646324629465C
:100980002046FFF7C4FF4FF4C87000F028FC324641
:1009900029462046FFF70CFF4FF4C87000F01FFCFB
:1009A00070BDF0B505460E4614460A2094FBF0F0E3
:1009B0003030C7B23A4631462846FFF7F9FE0A20E2
:1009C00094FBF0F100FB11403030C7B2691CC8B293
:1009D0003A463146FFF7ECFEF0BDF0B505460E464F
:1009E00014460A2094FBF0F03030C7B23A46314644
:1009F0002846FFF78CFF0A2094FBF0F100FB114022
:100A00003030C7B2691CC8B23A463146FFF77FFFA3
:100A1000F0BD70B504460D461646324629462046BE
:100A2000FFF7DBFF642000F0DAFB32462946204660
:100A3000FFF7B7FF642000F0D2FB70BD70B506462B
:100A40000C462207110EF206100EFFF741FD00259D
:100A500004E00020FFF773FD681CC5B2082DF8DB29
:100A6000082202EB0412D1B2F206100EFFF730FD9D
:100A7000002504E00020FFF762FD681CC5B2082DC8
:100A8000F8DB70BD70B506460C462207110EF20663
:100A9000100EFFF71DFD002504E00020FFF774FD98
:100AA000681CC5B2082DF8DB082202EB0412D1B293
:100AB000F206100EFFF70CFD002504E00020FFF702
:100AC00063FD681CC5B2082DF8DB70BD2DE9F0414F
:100AD00005460E46174600BF00BFA7F1200000F0F4
:100AE000FF08F206110E05EB45025206100EFFF745
:100AF000EFFC002409E008EB48011F4A02EB41012A
:100B0000085DFFF71CFD601CC4B2062CF3DBBDE8DA
:100B1000F08170B505460E46144607E014F8012B27
:100B200031462846FFF7D2FF681CC5B2207800285E
:100B3000F4D170BDF0B505460E4614460A2094FB6C
:100B4000F0F03030C7B23A4631462846FFF7BEFFD4
:100B50000A2094FBF0F100FB11403030C7B2691C51
:100B6000C8B23A463146FFF7B1FFF0BD441300204A
:100B7000441400209E4300087641000870B500240C
:100B800018E004F1B001C8B2FFF77EFC0020FFF7C7
:100B90007BFC1020FFF778FC002507E0F84901EB0B
:100BA000C501085DFFF7CBFC681CC5B2802DF5DBE5
:100BB000601CC4B2082CE4DB70BD70B500257F2832
:100BC00001DC3F2900DD70BD0B46CE1701EB5676E8
:100BD000F610C6F10706F2B2CE1701EB5676F61004
:100BE000A1EBC606F4B2C4F107060123B340DDB29F
:100BF000E34B03EBC0039B5C2B43E14E06EBC006CB
:100C0000B35400BFDFE7F0B5144600267F2801DCAF
:100C10003F2900DDF0BD0B46CF1701EB5777FF10E2
:100C2000C7F10707FAB2CF1701EB5777FF10A1EB17
:100C3000C707FDB2C5F107070123BB40DEB24CB1C7
:100C4000CF4B03EBC0039B5C3343CD4F07EBC00797
:100C5000BB5408E0CA4B03EBC0039B5CB343C84FD3
:100C600007EBC007BB5400BFD4E72DE9F0430646AD
:100C70000F469046994634460BE03D4605E029462E
:100C80002046FFF79AFF681CC5B24D45F7DD601C92
:100C9000C4B24445F1DDBDE8F0832DE9FF4F84B0D7
:100CA00081468A460020039002900698A0EB090531
:100CB0000798A0EB0A06CDF80490CDF800A0002D0F
:100CC00001DD012705E00DB9002702E04FF0FF37F5
:100CD0006D42002E02DD4FF0010806E016B94FF01C
:100CE000000802E04FF0FF387642B54201DD2C46A5
:100CF00000E034464FF0000B21E0009AD1B2019A97
:100D0000D0B2FFF75AFF039828440390029830446A
:100D100002900398A04205DD0398001B0390019800
:100D2000384401900298A04205DD0298001B029011
:100D30000098404400900BF101001FFA80FB601CFA
:100D40008345DADD08B0BDE8F08FF0B504460D4606
:100D500016461F46EBB2F2B2E9B2E0B2FFF79DFFD2
:100D6000FBB2E2B2E9B2E0B2FFF797FFFBB2F2B238
:100D7000F9B2E0B2FFF791FFFBB2F2B2E9B2F0B222
:100D8000FFF78BFFF0BD2DE9F04706460F46904672
:100D90009A46002445460320A0EB48094FE0BAF1EB
:100DA000010F09D0BAF1020F13D0BAF1030F1DD011
:100DB000BAF1040F34D126E03A19D1B27219D0B287
:100DC000FFF7FBFE7A19D1B23219D0B2FFF7F5FE68
:100DD00027E07A19D1B2321BD0B2FFF7EEFE3A19F2
:100DE000D1B2721BD0B2FFF7E8FE1AE07A1BD1B283
:100DF000321BD0B2FFF7E1FE3A1BD1B2721BD0B268
:100E0000FFF7DBFE0DE07A1BD1B23219D0B2FFF74B
:100E1000D4FE3A1BD1B27219D0B2FFF7CEFE00E079
:100E200000BF00BF641CB9F1000F03DAA000801DF1
:100E3000814404E0601B80000A3081446D1EAC4296
:100E4000ADDDBDE8F08770B504460D4616460123BA
:100E5000324629462046FFF796FF022332462946AE
:100E60002046FFF790FF0323324629462046FFF72E
:100E70008AFF0423324629462046FFF784FF70BDCF
:100E80002DE9F04304460D4616461F46DDE9078965
:100E90003B46324629462046FFF7FFFE4B46424678
:100EA00039463046FFF7F9FE2B4622464946404672
:100EB000FFF7F3FEBDE8F08370B504460D46164615
:100EC000A819C3B2224629462046FFF7E6FE70BDA8
:100ED00070B504460D461646A019C2B22B462946E7
:100EE0002046FFF7DAFE70BD2DE9F04705460E46B5
:100EF00017469846089C781B022101FB140000F05D
:100F0000FF09A8EB060001FB140000F0FF0A2919F5
:100F1000C8B24A463146FFF7DBFF2919C8B24A4634
:100F20004146FFF7D5FF3019C1B252462846FFF7B8
:100F3000C3FF3019C1B252463846FFF7BDFFA8EBD8
:100F4000040291B23A1B90B201232246FFF71BFF25
:100F5000A8EB040291B2281902232246FFF713FFDF
:100F60003119281903232246FFF70DFF31193A1BC7
:100F700090B204232246FFF706FFBDE8F087000089
:100F8000681600202DE9F0410646304602F078FC54
:100F900000243CE0002536E004EB840303EB44131B
:100FA0001D4F3B445A5D6B06190E6306180EFFF782
:100FB0002AFE04EB840303EB44133B445A5D6B00AD
:100FC0005B1CD9B26306180EFFF71DFE04EB840309
:100FD00003EB44133B445A5D6B06190E63005B1C24
:100FE000D8B2FFF710FE04EB840303EB44133B4439
:100FF0005A5D6B005B1CD9B263005B1CD8B2FFF773
:1010000002FE681CC5B2252DC6DB601CC4B2252CAF
:10101000C0DBBDE8F0810000301B002008B50121D5
:10102000442000F053FD1C20ADF8000048208DF84E
:1010300003006946354800F08DFA0120ADF8000044
:1010400028208DF803006946314800F083FA08BD76
:1010500010B5044614B101202E4908702D480078BF
:10106000002837D01021294800F007FB78B108216B
:10107000264800F002FB50B10421244800F0FDFA9C
:1010800028B10121224800F0F8FA012822D10A20D3
:1010900000F0A5F800201F49087010211B4800F03F
:1010A000ECFA08B9012010BD0821184800F0E5FA53
:1010B00008B90220F7E70421144800F0DEFA08B965
:1010C0000320F0E70121124800F0D7FA01281BD1D4
:1010D0000420E8E710210D4800F0CFFA012813D1D1
:1010E00008210A4800F0C9FA01280DD10421074857
:1010F00000F0C3FA012807D10121054800F0BDFA2C
:1011000010B90120034908700020CCE70018014005
:10111000000801400415002008B50121482000F016
:10112000D5FC2020ADF8000010208DF8030003202E
:101130008DF802006946094800F00CFA20210748A2
:1011400000F0B5FA2020ADF800006946044800F030
:1011500001FA2021024800F0AAFA08BD000C014063
:101160000018014010B56FF0040000F074F92E482B
:1011700000682E49B0FBF1F02D4908700846007850
:1011800000EB4001C1EBC0104FF6FF7101EAC00057
:101190002849088010BD0146254A12784A434FF07D
:1011A000E0235A6100229A611A46126942F0010254
:1011B0001A6100BF4FF0E022106900F001021AB17D
:1011C00000F48032002AF5D04FF0E022126922F0BC
:1011D00001024FF0E0231A6100229A617047014634
:1011E000144A12884A434FF0E0235A6100229A6160
:1011F0001A46126942F001021A6100BF4FF0E02264
:10120000106900F001021AB100F48032002AF5D012
:101210004FF0E022126922F001024FF0E0231A6140
:1012200000229A61704700000000002000127A003E
:101230000615002008150020014600BF704700BFBA
:10124000494A128802F04002002AF9D0C2B2464B45
:101250001B1D1A80704710B586B00446012144F268
:10126000040000F033FC4FF40070ADF814000320CC
:101270008DF8160018208DF8170005A93B4800F0DE
:1012800069F94FF48060ADF8140004208DF8170060
:1012900005A9364800F05EF925208DF800000320EE
:1012A0008DF801008DF8020001208DF803006846DA
:1012B00000F087F801940020ADF80800ADF80A00AE
:1012C000ADF80C00ADF810000C20ADF80E0001A92F
:1012D000254800F0A2FC012240F22551224800F0EE
:1012E00034FD0121204800F024FD06B010BD10B5EA
:1012F00040F225511C4800F00DFE10B31A4800F0D2
:1013000089FDC4B21A48008800F40040C8B91848E2
:10131000008800F4804060B10A2C03D000201449FA
:10132000088020E01248008840F4004010490880FE
:1013300019E00D2C06D10E48008840F480400C497D
:10134000088010E00A480088C0F30D0009490C54D9
:1013500007480088401C0649088008460088C728BE
:1013600001DD0020088010BD003801400008014068
:1013700010150020681A00200948804709480047D6
:10138000FEE7FEE7FEE7FEE7FEE7FEE7FEE7FEE735
:10139000FEE7FEE704480549054A064B7047000092
:1013A0006703000831010008C8270020C82D00206D
:1013B000C8290020C829002031490143314A116061
:1013C000704770B5002100230F22C47804B32D4C60
:1013D000246804F4E064C4F5E064210AC1F1040364
:1013E000CA40447804FA03F1847814402143090187
:1013F000254C0678A155047804F01F050124AC4063
:1014000005786D11AD0005F1E025C5F8004109E052
:10141000047804F01F050124AC401C4D06787611B9
:1014200045F8264070BD1A4A0A400243154B1B1F5F
:101430001A60704739B1134A121D12680243114BEA
:101440001B1D1A6006E00F4A121D126882430D4BE5
:101450001B1D1A607047042808D14FF0E02109696C
:1014600041F004014FF0E022116107E04FF0E0216C
:10147000096921F004014FF0E0221161704700007A
:101480000000FA050CED00E000E400E080E100E07F
:1014900080FFFF1F10B50446CC48844208D10121CB
:1014A000042000F02DFB0021042000F029FB46E081
:1014B000C748844208D10121082000F021FB002107
:1014C000082000F01DFB3AE0C248844208D1012107
:1014D000102000F015FB0021102000F011FB2EE081
:1014E000BD48844208D10121202000F009FB0021E1
:1014F000202000F005FB22E0B848844208D10121F9
:10150000402000F0FDFA0021402000F0F9FA16E03A
:10151000B348844208D10121802000F0F1FA002173
:10152000802000F0EDFA0AE0AE48844207D10121A4
:10153000801500F0E5FA0021A01500F0E1FA10BDD9
:1015400010B50121084600F0DBFA0021012000F06F
:10155000D7FA10BD2DE9F0410246002500260020F3
:1015600000230024002791F803C00CF00F0591F828
:1015700003C00CF0100CBCF1000F03D091F802C0B6
:101580004CEA050591F800C0BCF1000F31D0146899
:1015900000202BE04FF0010C0CFA00F3B1F800C072
:1015A0000CEA03069E4220D183004FF00F0C0CFA88
:1015B00003F7BC4305FA03FC4CEA040491F803C0AA
:1015C000BCF1280F06D14FF0010C0CFA00FCC2F858
:1015D00014C00AE091F803C0BCF1480F05D14FF0E8
:1015E000010C0CFA00FCC2F810C0401C0828D1D332
:1015F0001460B1F800C0BCF1FF0F34DD5468002066
:101600002EE000F1080C4FF0010808FA0CF3B1F8D5
:1016100000C00CEA03069E4221D183004FF00F0C5C
:101620000CFA03F7BC4305FA03FC4CEA040491F8F6
:1016300003C0BCF1280F05D100F1080C08FA0CF822
:10164000C2F8148091F803C0BCF1480F07D100F133
:10165000080C4FF0010808FA0CF8C2F81080401C82
:101660000828CED35460BDE8F0814FF6FF710180A9
:10167000022181700421C1707047024600209368E6
:101680000B400BB1012000E0002070470146886844
:1016900080B2704702460020D3680B400BB1012096
:1016A00000E0002070470146C86880B270470161C1
:1016B0007047416170470AB1016100E041617047C4
:1016C000C16070474FF480320A4382618161826158
:1016D00082698269704702460020434B18684FF6C2
:1016E0008073184040EA021008433F4B186070476F
:1016F0003E49C8617047F0B50A4600230024002126
:10170000002500F00046B6F1004F02D1364EF169D7
:1017100001E0354E7168C0F3034583B200F4401612
:10172000B6F5401F08D121F070612F4E766826F083
:1017300070662D4F7E6012E000F48016B6F5801FB3
:1017400006D1032606FA05F4A14341F0706106E0D4
:10175000460D360103FA06F6B14341F0706122B13D
:10176000460D360103FA06F6314300F00046B6F1A5
:10177000004F02D11C4EF16101E01B4E7160F0BDC3
:1017800030B500228B071C0F0F2303FA04F2164B0F
:1017900008338C1053F824309343134C08348D10C5
:1017A00044F8253023468C1053F824308C07240F3E
:1017B00000FA04F423430C4C08348D1044F825300F
:1017C00030BD0A49DC310860704700000008014064
:1017D000000C0140001001400014014000180140BD
:1017E000001C014000200140000001400000204298
:1017F000DF48006840F00100DD49086008464068A5
:10180000DC490840DA49486008460068DA4908407F
:10181000D74908600846006820F480200860084620
:10182000406820F4FE0048604FF41F008860704755
:10183000CF49096821F48031CD4A11601146096809
:1018400021F480211160B0F5803F03D0B0F5802FE6
:101850000ED106E0C649096841F48031C44A1160DE
:1018600007E0C349096841F4A021C14A116000E0C2
:1018700000BF00BF704710B50146002200230020C2
:101880004A11012A02D1BA4C236806E0022A02D189
:10189000B74C236A01E0B64C636A01F01F020124D1
:1018A00094401C400CB1012000E0002010BD38B570
:1018B000002000900024002500BF3120FFF7DBFF4F
:1018C00005460098401C00900098B0F5A06F01D02C
:1018D000002DF2D03120FFF7CEFF08B1012400E047
:1018E0000024204638BD01460020A14A106820F09F
:1018F000F80040EAC10010607047A04908607047D6
:10190000024600209A4B586820F47C1042EA0103FA
:101910001843974B586070479849086670470146CE
:101920000020934A506820F003000843506070473D
:101930008F48406800F00C007047014600208C4A38
:10194000506820F0F00008435060704701460020C6
:10195000874A506820F4E0600843506070470146B1
:101960000020834A506820F4605040EAC100506073
:10197000704729B17E4A527A02437D4B5A7204E085
:101980007B4A527A82437A4B5A7270477B49D831EC
:101990000860704701460020754A506820F44040B6
:1019A0000843506070470021714A20321170704A1C
:1019B00082F82010012802D004280AD104E0012175
:1019C0006B4A2032117005E00521694A20321170FE
:1019D00000E000BF00BF7047694908607047644974
:1019E000096A0143624A11627047654944390860D7
:1019F000704730B500210022002400235C4D6D6843
:101A000005F00C0121B1042905D0082923D105E0F6
:101A10005C4D056022E05B4D05601FE0544D6D6834
:101A200005F47012524D6D6805F48034022505EB03
:101A300092421CB9544D554305600BE04C4D6D6806
:101A400005F400351DB1504D5543056002E04D4D84
:101A50005543056002E04B4D056000BF00BF444D9B
:101A60006D6805F0F0010909484D6B5C0568DD40C3
:101A700045603F4D6D6805F4E061090A434D6B5CBC
:101A80004568DD4085603A4D6D6805F46051C90ACE
:101A90003E4D6B5C4568DD40C560354D6D6805F4B5
:101AA0004041890B3A4D6B5CC568B5FBF3F50561A8
:101AB00030BD29B12E4A526902432D4B5A6104E0D0
:101AC0002B4A526982432A4B5A61704729B1284AEE
:101AD00092690243264B9A6104E0254A9269824347
:101AE000234B9A61704729B1214AD2690243204BA6
:101AF000DA6104E01E4AD26982431D4BDA61704705
:101B000029B11B4AD2680243194BDA6004E0184A33
:101B1000D2688243164BDA60704729B1144A1269C1
:101B20000243134B1A6104E0114A12698243104BBD
:101B30001A61704712494039086070470F49C864FC
:101B400070470B49C87170470948406A40F080707F
:101B500007494862704701460020054A92680A40DA
:101B60000AB1012000E000207047014988727047E7
:101B7000001002400000FFF8FFFFF6FE00004242A6
:101B80008004424200127A0000093D001215002034
:101B90002215002010B50446FB48844209D10121DA
:101BA0008803FFF7ADFF00214FF48040FFF7A8FF47
:101BB00032E0F648844209D101214804FFF7ADFF25
:101BC00000214FF40030FFF7A8FF25E0F0488442E1
:101BD00009D101218804FFF7A0FF00214FF48020E4
:101BE000FFF79BFF18E0EB48844209D10121C804AC
:101BF000FFF793FF00214FF40020FFF78EFF0BE06B
:101C0000E548844208D101210805FFF786FF00213D
:101C10004FF48010FFF781FF10BD2DE9F04786B02B
:101C200005460E460024A24600BFA1460027B08903
:101C300000B100BF2F462C8A4CF6FF700440F0889C
:101C400004432C82AC894EF6F3100440B0883189ED
:101C50000843718908430443AC81AC8A4FF6FF40C6
:101C60000440B0890443AC8201A8FFF7C2FEC64815
:101C7000874202D1DDF810A001E0DDF80CA0A889B0
:101C800000F4004040B10AEBCA0000EB0A103168D2
:101C90004900B0FBF1F807E00AEBCA0000EB0A10BC
:101CA00031688900B0FBF1F86420B8FBF0F0040162
:101CB0002009642101FB1089A88900F4004040B18B
:101CC000322000EBC900B0FBF1F000F00700044344
:101CD00008E0322000EB09106421B0FBF1F000F0C5
:101CE0000F0004432C8106B0BDE8F0874FF4165175
:101CF000016000218180C18001810C21418100218E
:101D00008181704710B502460020108A4FF2FF0310
:101D100018400B884C8823438C882343CC8823436A
:101D20001843108210BD0021018041808180C18054
:101D3000704721B1828942F40052828104E0828995
:101D40004DF6FF731A4082817047F0B503460024B8
:101D500000260025002040F66A17B94200D100BFD6
:101D60001846C1F3421401F01F06012707FA06F5D1
:101D7000012C01D10C3004E0022C01D1103000E024
:101D800014301AB107682F43076002E00768AF43B9
:101D90000760F0BD1AB1838A0B43838202E0838A15
:101DA0008B4383827047028A4FF6F0731A40028297
:101DB000028A0A430282704782894FF2FF731A40F7
:101DC000828182890A438281704721B1828942F0EF
:101DD0000202828104E082894FF6FD731A408281FB
:101DE0007047028A4FF6DF731A400282028A0A4362
:101DF0000282704721B1028A42F48042028204E0EA
:101E0000028A4BF6FF731A4002827047C1F3080240
:101E10008280704701468888C0F308007047818936
:101E200041F0010181817047028BD2B20283028BA3
:101E300042EA012202837047028B02F47F4202834E
:101E4000028B0A430283704721B1828A42F020024A
:101E5000828204E0828A4FF6DF731A4082827047E2
:101E600021B1828A42F01002828204E0828A4FF617
:101E7000EF731A408282704721B1828A42F00802D1
:101E8000828204E0828A4FF6F7731A40828270479A
:101E900021B1828942F40042828103E08289C2F347
:101EA0000E028281704721B1828A42F400628282EE
:101EB00004E0828A4FF2FF731A4082827047828A5E
:101EC0004FF6FB731A408282828A0A4382827047ED
:101ED00021B1828A42F00202828204E0828A4FF6B5
:101EE000FD731A408282704702460020B1F5007FE0
:101EF00000D100BF13880B400BB1012000E000208F
:101F0000704701F40072B2F5007F00D100BFCA43F0
:101F10000280704770B5024600240023002500208F
:101F200040F66A16B14200D100BFC1F3421501F07C
:101F30001F03012606FA03F3012D02D196893340CF
:101F400006E0022D02D1168A334001E0968A334022
:101F50000C12012606FA04F41688344013B10CB1B1
:101F6000012000E0002070BD10B50022002340F6E3
:101F70006A14A14200D100BF0A1201249440A3B206
:101F8000DC43048010BD00000038014000440040E4
:101F900000480040004C00400050004070B503462F
:101FA000FA4C246834B1012C02D0022C06D103E093
:101FB000002205E0082203E0182201E0102200BF01
:101FC00000BF1A44910200200CE0C0F10E0501246C
:101FD000AC400C402CB1C0F1040540F23754AC4089
:101FE0006140401C0528F0DB01EB822145F21244E0
:101FF0006140002009E0012484400C400CB13025F0
:1020000000E02025E24C2554401C0528F3DD01F0BA
:1020100040040CB1302500E02025DE4C84F82F511F
:1020200001F080040CB1302500E02025D94C84F863
:10203000305101F480740CB1302500E02025D54CDE
:1020400084F80B51092010E0012484400C400CB1AD
:10205000302400E02024C0F10E0505EB850606EBD8
:102060004515CC4E35442C72401C0E28ECDD00206A
:1020700012E0012484400C400CB1302500E0202502
:10208000C54C2468641E241A04EB840606EB441431
:10209000C04E34442572401C0728EADD3026BE4C71
:1020A0002468083CBA4D2E5508200DE001248440D8
:1020B0000C400CB1302500E02025B74C24680F3CC3
:1020C0002618B34CA555401C0E28EFDD70BDF0B5A9
:1020D00002460020C8E00021C0E001EB810303EBD1
:1020E0004113AC4C23441B5C03F02003002B75D13F
:1020F000072A78D2DFE802F004101C2733465B0081
:10210000431803EBD3746410A3EB44040CB901240B
:1021100000E0002425467FE0034600EBD374641002
:10212000A0EB44040CB9012400E00024254673E030
:10213000032391FBF3F403FB14130BB9012300E019
:1021400000231D4668E04318032493FBF4F604FBC8
:1021500016330BB9012300E000231D465CE0032683
:1021600091FBF6F6044600EBD47706EB670303EB2E
:10217000D3767610A3EB46060EB9012600E00026C2
:10218000354649E000FB01F4032694FBF6F706FB15
:10219000174600FB01F303EBD3746410A3EB440474
:1021A00034440CB9012400E00024254634E000FB4F
:1021B00001F6032796FBF7FC07FB1C6700FB01F405
:1021C00004EBD4767610A4EB4606BB1903EBD3766A
:1021D0007610A3EB46061EB9012602E03DE002E0C0
:1021E0000026354618E000FB01F6032796FBF7FCB6
:1021F00007FB1C66441804EBD4777F10A4EB470759
:10220000F31903EBD3767610A3EB46060EB901263D
:1022100000E00026354600BF00BF01EB810303EB61
:1022200041135C4C23441B5C03F0FE0401EB81036F
:1022300003EB4113574E33441B5C03F00203012BA5
:1022400001DD012300E000236B40234301EB810407
:1022500004EB41144F4E34442354491C4E4B1B682D
:102260009942FFF63AAF401C4B4B1B689842FFF671
:1022700032AFF0BD2DE9F0410020002400223CE007
:10228000002134E001264B1C26E002EB820707EB1D
:102290004217DFF800C167447F5C07F011070FB9F0
:1022A000012700E0002702EB820C0CEB421CDFF858
:1022B000E480C4441CF803C00CF0110CBCF1000F06
:1022C00002D14FF0010C01E04FF0000C674501D145
:1022D000761C00E004E05B1C2F4F3F68BB42D4DB60
:1022E00000BF052E01DBB71E3844591E491C2A4E7B
:1022F0003668361F8E42C5DC521C274E3668B24205
:10230000BEDB00223CE0002134E001264B1C26E02D
:1023100001EB810707EB4117DFF878C06744BF5C2A
:1023200007F011070FB9012700E0002703EB830C2A
:102330000CEB431CDFF85C80C4441CF802C00CF0BA
:10234000110CBCF1000F02D14FF0010C01E04FF075
:10235000000C674501D1761C00E004E05B1C0E4FC9
:102360003F68BB42D4DB00BF052E01DBB71E3844FB
:10237000591E491C084E3668361F8E42C5DC521C59
:10238000054E3668B242BEDB00226EE04C160020DD
:10239000581C0020301B00203C16002000215EE06D
:1023A00002EB820606EB4216FE4F3E44765C06F0D8
:1023B00011060EB9012700E00027561C06EB860C1B
:1023C0000CEB4616DFF8DCC36644765C06F01106BB
:1023D0000EB9012600E00026B7423FD102EB82068B
:1023E00006EB4216EF4F3E44765C06F011060EB93E
:1023F000012700E0002702EB820606EB4216DFF819
:10240000A4C3B4444E1C1CF8066006F011060EB9B5
:10241000012600E00026B74220D102EB820606EB3F
:102420004216E04F3E44765C06F011060EB90127D5
:1024300000E00027561C06EB860C0CEB4616DFF876
:1024400064C3B4444E1C1CF8066006F011060EB9B5
:10245000012600E00026B74200D1C01C491CD24E24
:102460003668761E8E429BDC521CCF4E3668761E36
:10247000964293DC0022D2E00021C9E059B102EB80
:10248000820606EB4216C74F37444E1EBE5D06F06D
:102490001106002E76D102EB820606EB4216C14FE2
:1024A0003E44765C06F01106002E6BD002EB8206ED
:1024B00006EB421637444E1CBE5D06F01106002E98
:1024C00060D102EB820606EB4216B64F37448E1CF3
:1024D000BE5D06F01106002E54D002EB820606EB1C
:1024E0004216B04F3744CE1CBE5D06F01106002EDA
:1024F00048D002EB820606EB4216AA4F37440E1D67
:10250000BE5D06F01106EEB302EB820606EB421644
:10251000A44F37444E1DBE5D06F0110696BB02EB7C
:10252000820606EB42169F4F37448E1DBE5D06F0B5
:1025300011063EB39C4E3668F61F8E420AD002EB5F
:10254000820606EB4216974F3744CE1DBE5D06F05D
:102550001106BEB902290ADB02EB820606EB42161F
:10256000904F37448E1EBE5D06F01106DEB903297A
:102570000CDB02EB820606EB42168A4F3744CE1E76
:10258000BE5D00E043E006F0110666B904293DDBBC
:1025900002EB820606EB4216824F37440E1FBE5DE9
:1025A00006F0110696B3804E3668083E8E420BDD6B
:1025B00002EB820606EB42167A4F374401F1080619
:1025C000BE5D06F0110616BB774E3668093E8E4298
:1025D0000BDD02EB820606EB4216724F374401F127
:1025E0000906BE5D06F011068EB96F4E36680A3ECA
:1025F0008E420BDD02EB820606EB4216694F374432
:1026000001F10A06BE5D06F0110606B92830491C24
:10261000654E3668B61F8E423FF730AF521C624E91
:102620003668B242FFF628AF0022D7E00021CEE0A4
:1026300059B14E1E06EB860707EB4616594F3E442E
:10264000B65C06F01106002E60D101EB810606EBA8
:102650004116544F3E44B65C06F01106002E55D08C
:102660004E1C06EB860707EB46164E4F3E44B65C03
:1026700006F01106002E49D18E1C06EB860707EBEB
:102680004616484F3E44B65C06F01106F6B3CE1C23
:1026900006EB860707EB4616424F3E44B65C06F053
:1026A00011069EB30E1D06EB860707EB46163D4F3F
:1026B0003E44B65C06F0110646B34E1D06EB860797
:1026C00007EB4616374F3E44B65C06F01106EEB9EE
:1026D0008E1D06EB860707EB4616324F3E44B65C6E
:1026E00006F0110696B1304E3668F61F8E420AD0BB
:1026F000CE1D06EB860707EB46162A4F3E44B65C16
:1027000006F0110616B902290CDB00E05EE08E1E11
:1027100006EB860707EB4616224F3E44B65C06F0F2
:102720001106CEB903290ADBCE1E06EB860707EB9E
:1027300046161C4F3E44B65C06F0110666B90429E5
:1027400043DB0E1F06EB860707EB4616154F3E448C
:10275000B65C06F011064EB3134E3668083E8E4244
:102760000BDD01F1080606EB860707EB46160D4F59
:102770003E44B65C06F0110646BB0B4E3668093E79
:102780008E420BDD01F1090606EB860707EB4616C4
:10279000044F3E44B65C06F01106BEB9024E3668E0
:1027A0000A3E04E0301B00203C1600200DE08E4263
:1027B0000BDD01F10A0606EB860707EB4616FE4F16
:1027C0003E44B65C06F0110606B92830491CFB4EA3
:1027D0003668B61F8E423FF72BAF521CF74E366855
:1027E000B242FFF623AF002212E000210BE002EB21
:1027F000820606EB4216F04F3E44765C06F0110668
:1028000006B9641C491CED4E3668B142EFDB521C20
:10281000EA4E3668B242E8DB64266643E74F3F681B
:102820007F4396FBF7F6C6F13206002E09DD6426DB
:102830006643E24F3F687F4396FBF7F6C6F13205E9
:1028400009E064266643DD4F3F687F4396FBF7F659
:10285000C6F132067542052695FBF6F606EB8606AE
:1028600000EB4600BDE8F081F0B5D44E3068366824
:10287000711E0122012500233DE0002438E000BF45
:1028800010445242002A13DA2944002903DBCB4EBC
:102890003668B1420CD1002901DA002602E0C74EA9
:1028A0003668761E31466D42801E062800D1401ED5
:1028B00000EB800606EB4016BF4F3E44765C06F008
:1028C0002006002EDCD1BE4EF65CC4F1070C0127B9
:1028D00007FA0CF73E400EB1022600E0002600EB9E
:1028E000800707EB4017DFF8D0C267447E54641CB2
:1028F000082CC4DB5B1CB34E3668B342BDDBF0BDB5
:1029000070B5024602EB820404EB4214AA4D2C443B
:10291000645C04F0200404B170BD921E891E002086
:1029200019E0002314E0A84C245CC3F1040601253F
:10293000B5402C400CB1302400E02024D51805EB24
:10294000850606EB45159C4E35440E18AC555B1CB0
:10295000052BE8DB401C0528E3DB00BFDCE730B5D6
:102960009A4B1B68062B00DC30BD984B1B681A0382
:1029700000200CE0C0F111040123A34013402BB14F
:10298000C0F1050441F62573A3405A40401C0628B7
:10299000F0DB8E4B1B6802EB0332002025E00021A8
:1029A00020E000EB40035C180123A34013400BB16F
:1029B000302400E0202400EB800303EB40137E4D25
:1029C0001D447E4B1B680B3B0B44EC547B4B1B683C
:1029D0000B3B0B4403EB830505EB4313764D2B4474
:1029E0001C54491C0329DCDB401C0628D7DB00BF34
:1029F000BAE770B502460B46002019E0002114E04A
:102A0000734C245CC1F106060125B5402C400CB185
:102A1000302400E02024551805EB850606EB45150B
:102A2000654E35441E18AC55491C0729E8DB401C8F
:102A30000728E3DB70BD30B500210846FFF7D9FF5A
:102A40005E490968C81F0021FFF7D3FF5B48006893
:102A5000C11F0020FFF7CDFF00242FE020215D489B
:102A6000015504EB840000EB4410534A1044C1713B
:102A7000524800680838204400EB800202EB401006
:102A80004D4A1044C1714D480068083800EB80027F
:102A900002EB4010484A1044015548480068083885
:102AA00002194C48815404EB840000EB4410424A64
:102AB00002444248006808381154641C082CCDDBDD
:102AC00000240BE0202143482530015504EB84000D
:102AD00000EB4410384A10440172641C092CF1DBED
:102AE000002413E0202135480068083802193948CD
:102AF00025308154314800680838204400EB8002BA
:102B000002EB40102C4A10440172641C082CE9DBD3
:102B1000FFF725FF002447E02C49096801EB8102FB
:102B200002EB41112C4A02EB41010E3131F8140045
:102B30000621FFF7E5FE2548006800EB800202EB66
:102B40004010254A02EB40000E3030F814100620E9
:102B5000FFF7D6FE00251AE01C4A126802EB82033A
:102B600003EB42121C4B03EB42020E3232F81510FB
:102B7000164A126802EB820303EB4212164B03EB78
:102B800042020E3232F81400FFF7BAFE6D1C0F48F5
:102B9000006800EB800101EB40100F4901EB4000A1
:102BA0008089A842D8DC641C0848006800EB8001DA
:102BB00001EB4010084911E0301B00203C160020BA
:102BC00039250020481600206316002050160020EA
:102BD0005C160020331C0020CE49000801EB4000A9
:102BE0008089A04298DC08241EE0204604EBD071C6
:102BF0004910A4EB410109B9302100E0202104EB88
:102C0000840202EB4412FE4B1A449171204604EBFD
:102C1000D0714910A4EB410109B9302200E0202213
:102C2000F749DE310A55641CF64800680938A042AD
:102C3000DBDA30BD2DE9F04140F25951F04801F0A6
:102C4000ACF9FFF7F8FEFFF70FFEEF480068401CF5
:102C500000BB0020EC49086008460068FFF737FA1F
:102C6000E9480068FFF79AF9FFF704FB07460124DB
:102C70000EE02046FFF72BFA2046FFF78FF9FFF70B
:102C8000F9FA0646BE4202DA3746DF480460641CA1
:102C9000072CEEDDDC480068FFF719FADA48006817
:102CA000FFF77CF900241BE0002514E004EB84000E
:102CB00000EB4410D2490844405D00F0110008B117
:102CC000012000E0002004EB840101EB4411CC4A18
:102CD000114448556D1CCB4800688542E6DB641CF6
:102CE000C84800688442DFDBBDE8F0812DE9F0418F
:102CF0000346002434E01D783DB31E78C34FBD5D0C
:102D0000002015E0C24F57F822703F5C2F444FF06F
:102D1000FF0C97FBFCF80CFB1877FEB2471CDF5D3D
:102D2000DFF8F0C21CF806C087EA0C071F54401CED
:102D30009042E7DB104603E0461C9E5D1E54401C9B
:102D40008E18761E8642F7DC09E0002003E0451C61
:102D50005D5D1D54401C8D186D1E8542F7DC641CA2
:102D60008C42C8DBBDE8F081F0B503460D46581C27
:102D700018B19818B0F5486F02DD4FF0FF30F0BD84
:102D8000002124E0501A401E012404FA00F02840DB
:102D9000E0B15818C61700EB5676F6109E4FBE5D90
:102DA0005C18E71704EB5777FF10A4EBC707C7F1D0
:102DB000070C012707FA0CF73E435818C71700EB1A
:102DC0005777FF10DFF850C20CF80760491C91429A
:102DD000D8DB9818D3E7014648F24010814208DB5F
:102DE00049F6FC70814204DCA1F50140403881B213
:102DF00002E001F57B5081B2C8B20A1202EB420236
:102E000000EB821080B270470146302905DB39297A
:102E100003DCA1F13000C0B27047412905DB5A291B
:102E200003DCA1F13700C0B2F6E7202901D124204C
:102E3000F2E7242901D12520EEE7252901D126201A
:102E4000EAE72A2901D12720E6E72B2901D128200A
:102E5000E2E72D2901D12920DEE72E2901D12A2000
:102E6000DAE72F2901D12B20D6E72C20D4E7F0B5C3
:102E70000446002324B1012C1CD0022C37D12FE0B2
:102E8000032091FBF0F56548805C001D0A2606FBD7
:102E90000503032091FBF0F500FB1510012802D07B
:102EA000022804D101E01B1D02E0DB1D00E000BF91
:102EB00000BF23E0084601EBD0767710584EB65C91
:102EC000361D4FF00B0C0CFB07660D4601EBD5775A
:102ED0007F10A1EB47074FF0060C0CFB07630DE0DA
:102EE0005048805C001D082505FB010306E04E48A4
:102EF000805C001D0D2505FB010300BF00BF1846C7
:102F0000F0BD0146302903DB392901DC012070477F
:102F1000412903DB5A2901DC0120F8E720290FD0E1
:102F200024290DD025290BD02A2909D02B2907D0F7
:102F30002D2905D02E2903D02F2901D03A2901D1DE
:102F40000120E4E70020E2E70146302903DB3929CC
:102F500001DC012070470020FCE70246812A01DBEA
:102F60009F2A03DDE02A0FDBEB2A0DDC40290BDB77
:102F70009F2A01D1FC2903DCEB2A03D1BF2901DD03
:102F8000002070470120FCE70020FAE72DE9F74F09
:102F900086B0074692460024A0464FF4C8712348E5
:102FA00000F0FBFF00200546214908605BE0079820
:102FB000401EA84207DD6A1CB95C785DFFF7CDFFB3
:102FC00008B103230CE0785DFFF7BEFF08B10023D2
:102FD00006E0785DFFF795FF08B1012300E00223CA
:102FE0000DB914480370134811490968405C9842B0
:102FF00023D00F480068401C0D4908600D491BE0B4
:10300000301B00203C16002058160020A85600084F
:1030100028150020A855000889200020545C0008CD
:10302000575C00085A5C00085D5C0008A92300207A
:1030300044160020192200200B54FE48FE4909685E
:10304000405C401CC1B2FB48FB4A12688154032B10
:1030500008D1F9490968405C401CF649F64A1268F3
:1030600088546D1C6D1C07988542A0DBF2480068EF
:10307000401CF149086060E100200190EF48005DCC
:1030800020B9EE49601C085C012808D0EB48005DBF
:1030900001287DD1E949601C085C0028F9D1E54A86
:1030A000115DE64A105D5246FFF7E1FE8346E14BB3
:1030B000621C995CE14B985C5246FFF7D8FE0BEB23
:1030C00000010591DB48025D0346601C185C111885
:1030D00052460120FFF7CBFE81460599494557DD51
:1030E000012C27DB601ED549085C022822D1601E16
:1030F000D04A105C125D811852460220FFF7B7FEDD
:103100008346CC4B621C995CCC4B985C5246FFF7D3
:10311000AEFE58440390601EC64A115C524602201F
:10312000FFF7A5FE00EB09010398814204DA0020B5
:10313000039001E000200390BF480068801EA04279
:103140002ADDBE49A01C085C022825D1B94A115DC0
:10315000BA4A105D5246FFF78AFE8346B54A601CA4
:10316000125CB44BA01C185C111852460220FFF7E9
:103170007EFE58440290AF4AA01C115C52460220C9
:10318000FFF775FE00EB09010298814206DA00E0C4
:10319000D1E00020029001E000200290039858B195
:1031A000029848B1DDE90210884202DA4FF0FF30A0
:1031B00000E0012001900AE0039810B14FF0FF30C9
:1031C00004E0029808B1012000E00020019001987D
:1031D000F0B30198401CD0B9601E9649085C095DA7
:1031E0000844C1B2601E934A1154254609E0934930
:1031F000681C095C914841558E49681C085C48551B
:103200006D1C8D480068401EA842F0DC1CE00221C5
:103210008A4A601C11548749095C864AA01C105CCC
:103220000844C1B2601C1154A51C08E08349681C05
:10323000085C48557F49681C085C48556D1C7E48F1
:103240000068401EA842F1DC7B480068401E00E098
:1032500002E0794908606DE077480068801EA0426E
:1032600023DD7649A01C085C01281ED17149601C31
:10327000095C704AA01C105C0844C1B2601C115467
:10328000A51C08E06D49681C085C48556949681C24
:10329000085C48556D1C68480068401EA842F1DC77
:1032A00065480068401E6449086001216348015573
:1032B0006048015D0246601C105C084411460855D8
:1032C000651C08E05D49681C085C48555949681C44
:1032D000085C48556D1C58480068401EA842F1DC47
:1032E00055480068401E54490860012C22DB601ECE
:1032F0005249085C01281DD1601E4E49085C095DD9
:103300000844C1B2601E4B4A1154254608E04B499F
:10331000681C085C48554749681C085C48556D1C8A
:1033200045480068401EA842F1DC43480068401E42
:103330004149086001E0641C00BF3F480068401E2E
:10334000A0423FF799AE0024BBE03A4A115D3B4AE8
:10335000105D5246FFF78BFD8346364B621C995C2D
:10336000364B985C5246FFF782FD58440590314831
:10337000025D0346601C185C111852460220FFF7DC
:1033800076FD8146012C0ADB601E2C49085C022870
:1033900005D12B4810F80A00001DA9EB00092648AA
:1033A0000068801EA0420ADD2449A01C085C022897
:1033B00005D1234810F80A00001DA9EB0009059863
:1033C00048457CDD012C23DB601E1C49085C02287B
:1033D0001ED1601E1749085C095D0844C1B2601E19
:1033E000144A1154254608E01449681C085C4855E5
:1033F0001049681C085C48556D1C0F480068401E49
:10340000A842F1DC0C480068401E0B490860641EAD
:1034100009480068801EA0422CDD0849A01C085CF9
:10342000022827D10349601C095C024AA01C105CD9
:10343000084407E0A9230020441600201922002098
:103440005A5C0008C1B2601C1154A51C08E0FD497B
:10345000681C085C4855FC49681C085C48556D1C94
:10346000FA480068401EA842F1DCF8480068401E97
:10347000F64908600220F3490855F348015D024609
:10348000601C105C084411460855651C08E0ED49B5
:10349000681C085C4855EC49681C085C48556D1C64
:1034A000EA480068401EA842F1DCE8480068401E77
:1034B000E6490860012C00DB641E02E0FFE7641CA3
:1034C00000BFE2480068401EA0423FF73EAF002028
:1034D000DF4908604FF4C871DE4800F05EFD00254A
:1034E0002BE1D848405DC8BB04220121D8480068C0
:1034F000FFF73AFCD6490860D74810F80A20D248AE
:10350000415DD3480068FFF72FFCD14908600026D1
:1035100056E0CD48405D801EB04220DD08EB06003D
:10352000385C30386421484308EB0601491C795C5B
:10353000303901EB810100EB410108EB0600801CF2
:10354000385C3038084480B204900A22C04804999C
:103550000068FFF709FCBE49086030E038E0BA486F
:10356000405D801EB04217D108EB0600401C385C5D
:10357000303808EB0601795C303901EB810100EB52
:10358000410080B204900722B14804990068FFF717
:10359000EBFBAF49086012E0AB48405D401EB04213
:1035A0000DD108EB0600385C303880B2049004225C
:1035B000A74804990068FFF7D7FBA5490860F61CE7
:1035C000A148405DB042A4DC9F48405D8044B3E028
:1035D0009C48405D01284AD1042202219C48006891
:1035E000FFF7C2FB9A4908609C4810F80A209648E9
:1035F000415D97480068FFF7B7FB954908600026D2
:103600002DE09148405D401EB04219DD08EB0601F7
:10361000785CFFF7F9FBC0EB001000EB400208EB11
:103620000601491C785CFFF7EFFB104404900B2265
:10363000874804990068FFF797FB854908600DE00B
:1036400008EB0601785CFFF7DFFB04900622804858
:1036500004990068FFF788FB7D490860B61C7A482A
:10366000405DB042CDDC7848405D804464E0754800
:10367000405D022827D10422114675480068FFF7F3
:1036800073FB73490860764810F80A206E48415D64
:103690006F480068FFF768FB6D49086000260AE084
:1036A00008EB0600395C082269480068FFF75CFBFC
:1036B00067490860761C6448405DB042F0DC6248AF
:1036C000405D804438E00422082161480068FFF72B
:1036D0004BFB5F4908605C4810F805B00BEBDB70F2
:1036E0004110604810F80A2059480068FFF73CFB79
:1036F00057490860002615E008EB4601491C795C33
:1037000008EB4602BA5C01EB022188B2FFF763FBCB
:1037100083460D2259464E480068FFF725FB4C4969
:103720000860761C4849485D00EBD071B6EB610F2C
:10373000E2DB4548405D80446D1C4448006885429A
:1037400005DA43480068401C00287FF4CAAE4048B0
:103750000068401C18B1012009B0BDE8F08F0020BE
:10376000FAE72DE9F04706460F4690461B2E01DB8F
:10377000022004E00A2E01DB012000E00020814647
:103780004D4679E02A4641463846FFF7FFFB0028C0
:1037900071D0EDB9012418E02D490968C81D04EB6A
:1037A000840101EB4411304A02EB4101091D2F4A0B
:1037B000126831F81210C21700EB5272B1EBE20F2F
:1037C00002DB2046BDE8F087641C092CE4DD52E0F2
:1037D000012D1CD10A2417E01D490968C81D04EBFE
:1037E000840101EB4411204A02EB4101091D1F4AEB
:1037F000126831F81210C21700EB5272B1EBE20FEF
:1038000001DB2046DEE7641C1A2CE5DD33E0022DE7
:1038100031D11B242DE00E490968C81D04EB840139
:1038200001EB4411104A02EB4101091D0F4A1268D5
:1038300031F81210C21700EB5272B1EBE20F17DB36
:103840002046BFE719220020A923002044160020AB
:103850004016002089200020545C0008575C0008B6
:103860005A5C00085D5C0008CE4900084C16002038
:10387000641C282CCFDD6D1C022D83DD0020A1E708
:103880002DE9F14F8CB001200B900A90EC200690AE
:103890004FF00008002600200990F9490860F94916
:1038A00008600998002801DD099802E00C9800F0F2
:1038B000CEFA0890089818B900200DB0BDE8F08F36
:1038C000089ADDE90B01FFF74CFF8246BAF1000FC1
:1038D00001D10020F1E70B9818B9EB48C0F800A01F
:1038E0000EE00B98824503DCE7490B98086007E07F
:1038F0000A9818B1E448C0F800A001E00020DCE715
:10390000E148006800EB800101EB4010DF4901EB6A
:103910004000001DDA49096830F81170DC48006881
:10392000C0EBC700042801DD042003E0D84800688C
:10393000C0EBC70007900798002807DD0021D44896
:10394000079A0068FFF710FAD1490860D049096862
:10395000C81DC11700EB5171CC100AE0CD49069883
:1039600008550698EC2801D1112000E0EC200690C3
:10397000641CBC42F2DBC448006800EB800101EB30
:103980004010C24901EB40004088C3490860084626
:103990000168C24800F001FBBB48006800EB8001F1
:1039A00001EB4010B94901EB40001A30B4490968F5
:1039B00001EB410130F811000590B348006800EBBD
:1039C000800101EB4010B14901EB40003230AC49BD
:1039D000096801EB410130F811100491DDE9041090
:1039E00000EB010BA848006800EB800101EB4010E0
:1039F000A64901EB40001A30A149096801EB4101D9
:103A000000EB4100B0F804909F48006800EB800193
:103A100001EB40109D4901EB4000323098490968A4
:103A200001EB410100EB41008088039000240FE08E
:103A3000002509E0404608F101089649085C0BFBA7
:103A40000561964A50546D1C4D45F3DB761C641C91
:103A500005988442ECDB00241CE0002515E04D4570
:103A600009DA404608F101088A49085C0BFB056148
:103A70008A4A505408E0404608F101088549085C2C
:103A80000BFB0941854A50546D1C03988542E6DBC7
:103A9000761C641C04988442DFDB7B48006800EBE2
:103AA000800101EB4010794901EB40001A30744964
:103AB000096801EB410100EB41004088A0EB0900DF
:103AC00002907148006800EB800101EB40106F49E3
:103AD00001EB400032306A49096801EB410100EB1B
:103AE000410041880398081A01904FF00008002611
:103AF00000241FE099216A4800F04FFA654800EB66
:103B000008014A46664800F006FA49466448029AA7
:103B1000FFF7ECF8002507E06148405D0BFB0571FD
:103B200031445E4A50546D1C02988542F4DBC8440F
:103B3000761C641C05988442DCDB002420E099217B
:103B4000574800F02AFA534800EB08015448039AFA
:103B500000F0E1F95248019A0399FFF7C7F80025F0
:103B600007E04F48405D0BFB057131444B4A505410
:103B70006D1C01988542F4DB03988044761C641C1C
:103B800004988442DBDB40480068112101EB80008F
:103B900044490860FFF74EF801208EE60246A12A4C
:103BA00001DBAA2A03DBB02A07DBFA2A05DCA129FC
:103BB00003DBFE2901DC012070470020FCE7014601
:103BC0004AF2A11081420EDB4AF6FE1081420ADC65
:103BD000C8B2A138A122C2EB212202EB420200EBC3
:103BE000421080B270474BF2A10081420EDB4FF6CB
:103BF000FE1081420ADCC8B2A138A622C2EB212203
:103C000002EB420200EB421080B2EBE7C8B2A138EF
:103C1000A622C2EB212202EB420200EB421080B24C
:103C2000E0E72DE9F04FC0B04FF0040C0226DFF8BA
:103C300074A0DAF800A09AFBF6F8DFF868A0DAF8CA
:103C400000A09AFBF6FB06FB1BA9DFF858A09AF828
:103C500000A00CFB0AFA0AF0FF070023A3E04FF0D4
:103C60001B0A8DF800A04FF02A0A8DF801A08DF8EC
:103C700002704FF0000A8DF803A00420002184E0B8
:103C80004C1600205816002050160020CE4900087F
:103C900040160020892000204816002039250020E9
:103CA000C92600203C16002003FB06F201EB810A26
:103CB0000AEB411ADFF88CB1DA441AF802A0BAF123
:103CC000010F11D101EB810A0AEB411AD34402F131
:103CD000010A1BF80AA0BAF1010F05D14FF0FF0A43
:103CE0000DF800A0401C40E001EB810A0AEB411AEC
:103CF000DFF850B1DA441AF802A0BAF1010F11D17D
:103D000001EB810A0AEB411AD34402F1010A1BF8C4
:103D10000AA0BAF1000F05D14FF0F00A0DF800A08B
:103D2000401C22E001EB810A0AEB411ADFF814B1D2
:103D3000DA441AF802A0BAF1000F11D101EB810A9E
:103D40000AEB411AD34402F1010A1BF80AA0BAF1A6
:103D5000010F05D14FF00F0A0DF800A0401C04E040
:103D60004FF0000A0DF800A0401C921C002407E050
:103D7000A0F1010A1DF80AA00DF800A0401C641C67
:103D8000ACF1010AA245F3DC491CDFF8BCA0DAF86B
:103D900000A0514588DB002500E06D1C07F1040AF6
:103DA0005545FADB5B1C4345FFF659AFB9F1000FEF
:103DB00045D04FF01B0A8DF800A04FF02A0A8DF86D
:103DC00001A08DF802704FF0000A8DF803A00420C6
:103DD000002127E008FB06F301EB810A0AEB411AF8
:103DE000DFF860B0DA441AF803A0BAF1010F05D188
:103DF0004FF0F00A0DF800A0401C04E04FF0000A5C
:103E00000DF800A0401C002407E0A0F1010A1DF8F5
:103E10000AA00DF800A0401C641CACF1010AA245E8
:103E2000F3DC491CDFF820A0DAF800A05145D1DB13
:103E3000002500E06D1C07F1040A5545FADB40B08F
:103E4000BDE8F08F301B00203C160020704710B5F5
:103E5000431C02E010F8011B71B18107FAD14FF049
:103E6000013202C88C1A8C4314EAC211F9D0C01A6C
:103E70000A0603D0C01E10BDC01A10BD0A0401D02E
:103E8000801E10BD0902FCD0401E10BD032A40F266
:103E9000308010F0030C00F0158011F8013BBCF1EC
:103EA000020F624498BF11F801CB00F8013B38BF04
:103EB00011F8013BA2F1040298BF00F801CB38BF12
:103EC00000F8013B11F0030300F09180083AC0F0C4
:103ED000088051F8043B083A51F804CBA0E80810D8
:103EE000F5E7121D5CBF51F8043B40F8043BAFF30B
:103EF0000080D20724BF11F8013B11F801CB48BF65
:103F000011F8012B24BF00F8013B00F801CB48BF9A
:103F100000F8012B7047431A28BF9A427FF6B6AFCC
:103F2000032A1044114440F2268010F0030F1EBFF4
:103F300011F8013D521E00F8013D10F0030F7FF40F
:103F4000F6AF11F0030300F09780083AC0F00B8041
:103F500051F8043D083A51F804CD40F8043D40F8CA
:103F600004CDFFF7F3BF121D5CBF51F8043D40F8CC
:103F7000043DAFF30080D20724BF11F8013D11F8D2
:103F800001CD48BF11F8012C24BF00F8013D00F815
:103F900001CD48BF00F8012C70474FF00002042902
:103FA000C0F0128010F0030C00F09280CCF1040CF1
:103FB000BCF1020F18BF00F8012BA8BF20F8022B9C
:103FC000A1EB0C0100F084B85FEAC17C24BF00F8CB
:103FD000012B00F8012B48BF00F8012B70477047F8
:103FE000704770470048704764270020704710B53D
:103FF000203AC0F00B80B1E81850203AA0E81850E1
:10400000B1E81850A0E81850BFF4F5AF5FEA027CA1
:1040100024BFB1E81850A0E8185044BF18C918C010
:10402000BDE810405FEA827C24BF51F8043B40F8B1
:10403000043B08BF7047D20728BF31F8023B48BF96
:1040400011F8012B28BF20F8023B48BF00F8012BD4
:104050007047431A28BF9A427FF6C9AF104410F048
:10406000030F11441EBF11F8013D521E00F8013D1F
:1040700010F0030F7FF4F6AF103AC0F00A8010B5CD
:1040800031E91850103A20E91850BFF4F9AFBDE8F3
:104090001040530724BF31E9081020E9081044BF3D
:1040A00051F8043D40F8043D12F0030F08BF70477B
:1040B000D20728BF31F8023D48BF11F8012C28BFB4
:1040C00020F8023D48BF00F8012C70474FF0000275
:1040D00000B5134694469646203922BFA0E80C50FE
:1040E000A0E80C50B1F12001BFF4F7AF090728BFD9
:1040F000A0E80C5048BF0CC05DF804EB890028BF55
:1041000040F8042B08BF704748BF20F8022B11F07D
:10411000804F18BF00F8012B70477546FFF762FF0C
:10412000AE4605006946534620F00700854618B0A4
:1041300020B5FDF72FF9BDE820404FF000064FF005
:1041400000074FF000084FF0000B21F00701AC46CC
:10415000ACE8C009ACE8C009ACE8C009ACE8C009EB
:104160008D46704710B50446AFF300802046BDE889
:104170001040FCF744B80000000000000000002FD1
:10418000000000000700070000147F147F140024C3
:104190002A7F2A12006264081323003649552250F0
:1041A00000000503000000001C2241000000412225
:1041B0001C000014083E08140008083E080800000F
:1041C00000A0600000080808080800006060000007
:1041D000002010080402003E5149453E0000427F85
:1041E0004000004261514946002141454B310018D1
:1041F00014127F10002745454539003C4A49493093
:10420000000171090503003649494936000649494C
:10421000291E000036360000000056360000000857
:104220001422410000141414141400004122140834
:1042300000020151090600324959513E007C121119
:10424000127C007F49494936003E41414122007FAE
:104250004141221C007F49494941007F0909090168
:10426000003E4149497A007F0808087F0000417FED
:104270004100002040413F01007F08142241007F9F
:1042800040404040007F020C027F007F0408107F06
:10429000003E4141413E007F09090906003E41516F
:1042A000215E007F0919294600464949493100012C
:1042B000017F0101003F4040403F001F2040201F80
:1042C000003F4038403F0063140814630007087043
:1042D000080700615149454300007F4141000055F6
:1042E0002A552A55000041417F00000402010204C2
:1042F00000404040404000000102040000205454AF
:104300005478007F484444380038444444200038FE
:104310004444487F00385454541800087E09010270
:104320000018A4A4A47C007F080404780000447D45
:104330004000004080847D00007F10284400000081
:10434000417F4000007C04180478007C0804047855
:1043500000384444443800FC242424180018242441
:1043600018FC007C0804040800485454542000043D
:104370003F444020003C4040207C001C2040201C4A
:10438000003C4030403C004428102844001CA0A0C1
:10439000A07C004464544C441414141414140000FD
:1043A000000000000000000000000000000000000D
:1043B00000F8000000000000003330000000001092
:1043C0000C06100C0600000000000000000040C0B9
:1043D0007840C0784000043F04043F0404000070AB
:1043E00088FC08300000001820FF211E0000F008A3
:1043F000F000E018000000211C031E211E0000F048
:104400000888700000001E2123241927211010168F
:104410000E0000000000000000000000000000008E
:1044200000E018040200000000071820400000020D
:104430000418E00000000040201807000000404081
:1044400080F0804040000202010F010202000000E3
:1044500000F0000000000101011F01010100000047
:1044600000000000000080B07000000000000000AC
:104470000000000000000001010101010101000035
:1044800000000000000000303000000000000000CC
:10449000000080601804006018060100000000E0C1
:1044A00010080810E000000F102020100F0000106E
:1044B00010F8000000000020203F202000000070C5
:1044C00008080888700000302824222130000030BD
:1044D0000888884830000018202020110E000000B5
:1044E000C02010F8000000070424243F240000F836
:1044F0000888880808000019212020110E0000E01B
:10450000108888180000000F112020110E000038BC
:104510000808C83808000000003F000000000070D4
:10452000880808887000001C222121221C0000E05D
:1045300010080810E0000000312222110F000000D6
:1045400000C0C0000000000000303000000000008B
:1045500000800000000000008060000000000000FB
:104560008040201008000001020408102000404094
:1045700040404040400004040404040404000008D7
:10458000102040800000002010080402010000708C
:1045900048080808F0000000003036010000C03074
:1045A000C828E810E0000718272423140B00000097
:1045B000C038E0000000203C23020227382008F821
:1045C000888888700000203F202020110E00C03015
:1045D000080808083800071820202010080008F8EC
:1045E00008080810E000203F202020100F0008F8E5
:1045F0008888E8081000203F20202320180008F8B1
:104600008888E8081000203F200003000000C03028
:1046100008080838000007182020221E020008F8A9
:1046200008000008F808203F210101213F20000870
:1046300008F8080800000020203F202000000000AB
:104640000808F8080800C08080807F00000008F893
:1046500088C028180800203F20012638200008F8CC
:10466000080000000000203F20202020300008F833
:10467000F800F8F80800203F003F003F200008F84D
:1046800030C00008F808203F200007183F00E01065
:1046900008080810E0000F10202020100F0008F874
:1046A00008080808F000203F210101010000E01087
:1046B00008080810E0000F18242438504F0008F8AC
:1046C000888888887000203F2000030C302000700C
:1046D0008808080838000038202121221C0018080A
:1046E00008F8080818000000203F2000000008F823
:1046F00008000008F808001F202020201F0008786C
:10470000880000C83808000007380E010000F808CB
:1047100000F80008F800033C0700073C03000818F5
:1047200068808068180820302C03032C302008385B
:10473000C800C83808000000203F20000000100812
:104740000808C8380800203826212020180000005A
:1047500000FE020202000000007F40404000000C0A
:1047600030C000000000000000010638C000000258
:104770000202FE000000004040407F0000000000F8
:10478000040202020400000000000000000000001B
:104790000000000000008080808080808080000217
:1047A0000204000000000000000000000000000003
:1047B0008080808000000019242222223F2008F8F7
:1047C000008080000000003F112020110E0000003A
:1047D000008080800000000E1120202011000000C9
:1047E00000808088F800000E112020103F2000007B
:1047F000808080800000001F22222222130000807F
:1048000080F0888888180020203F202000000000C9
:10481000808080808000006B94949493600008F8FE
:10482000008080800000203F210000203F20008089
:104830009898000000000020203F20200000000089
:1048400000809898000000C08080807F000008F8F9
:10485000000080808000203F24022D3020000008CE
:1048600008F8000000000020203F20200000808089
:10487000808080808000203F20003F20003F80809B
:10488000008080800000203F210000203F200000A9
:10489000808080800000001F202020201F0080805A
:1048A00000808000000080FFA12020110E00000089
:1048B000008080808000000E112020A0FF8080807A
:1048C00080008080800020203F2120000100000027
:1048D00080808080800000332424242419000080FC
:1048E00080E0808000000000001F20200000808009
:1048F000000000808000001F202020103F208080CA
:1049000080000080808000010E3008060100808059
:104910000080008080800F300C030C300F0000807E
:104920008000808080000020312E0E3120008080A9
:1049300080000080808080818E70180601000080D9
:104940008080808080000021302C222130000000F7
:104950000000807C020200000000003F4040000098
:104960000000FF00000000000000FF000000000247
:10497000027C800000000040403F00000000000674
:1049800001010202040400000000000000003048A1
:1049900048B08080800000001F2020202000000000
:1049A000180CE6120808000000404F301010F808FC
:1049B0000812E60C1800111111314F4000000810C8
:1049C00020FC885020000804023F110A0400000067
:1049D00000000000000000000000000000000000D7
:1049E00000000000000000000000000000000000C7
:1049F00000000000000000000000000000000000B7
:104A000000000000000000000000000000000000A6
:104A1000000000000000000001001A001300100058
:104A20000D00090000000000000000000000000070
:104A3000000001001A00130001001A00100001001C
:104A40001A000D0001001A0009000000000000001B
:104A50000000000000000000000000000000000056
:104A6000000002002C0022001C00160010000100B3
:104A700012000000000000000000000001002C00F7
:104A8000220001002C001C0001002C001600010077
:104A90002C001000000000000000000000000000DA
:104AA00000000000000000000000000003004600BD
:104AB00037002C0022001A00010016000000000040
:104AC0000000000000000100460037000100460021
:104AD0002C00020023001100020023000D00000042
:104AE00000000000000000000000000000000000C6
:104AF000000000000000040064005000400030008E
:104B0000240001001A000000000000000000000066
:104B10000100640050000200320020000200320058
:104B20001800040019000900000000000000000047
:104B30000000000000000000000000000000000075
:104B4000050086006C0056003E002E0001001E008D
:104B500000000000000000000000010086006C0062
:104B6000020043002B00020021000F000200210080
:104B70000B00000000000000000000000000020028
:104B800022001000020022000C000600AC00880089
:104B90006C004C003C0001002200000000000000FE
:104BA0000000000002005600440004002B001B001F
:104BB00004002B00130004002B000F000000000075
:104BC00000000000000000000000000000000000E5
:104BD000000000000700C4009C007C005800420058
:104BE0000200160026000000000000000000020085
:104BF00062004E00040031001F00020020000E0081
:104C0000040027000D00000000000000000000006C
:104C10000000040021000F00010028000E00080021
:104C2000F200C2009A006E005600020018002A002E
:104C30000000000000000000020079006100020096
:104C40003C002600040028001200040028000E008A
:104C500000000000000002003D00270002002900C3
:104C60001300020029000F0009002401E800B6002B
:104C70008400640002001A002E0000000000000002
:104C8000000002009200740003003A0024000400B7
:104C900024001000040024000C00000000000000AC
:104CA00002003B002500040025001100040025003F
:104CB0000D000A005A011201D8009A007A00020081
:104CC0001C0032000000000000000000020056003E
:104CD0004400040045002B0006002B0013000600D2
:104CE0002B000F00020057004500010046002C0079
:104CF00002002C00140002002C0010000B00940194
:104D00004401FE00B4008C0002001E0036000000CA
:104D10000000000000000400650051000100500088
:104D20003200040032001600030024000C000000D2
:104D3000000000000400510033000400330017009D
:104D4000080025000D000C00D20172012201CE00E6
:104D50009E00020020003A00000000000000000059
:104D6000020074005C0006003A00240004002E00DB
:104D7000140007002A000E00020075005D0002000A
:104D80003B00250006002F00150004002B000F003B
:104D90000D001402AC014E01F400B4000200220028
:104DA0003E000000000000000000040085006B00D1
:104DB00008003B00250008002C0014000C00210016
:104DC0000B0000000000000001003C002600040071
:104DD0002D001500040022000C000E004502CD013C
:104DE0006D010501C50003001A002E0042000000FD
:104DF0000000000003009100730004004000280040
:104E00000B00240010000B0024000C000100920095
:104E1000740005004100290005002500110005006F
:104E200025000D000F008F020B029F012701DF00FC
:104E300003001A00300046000000000000000500DA
:104E40006D005700050041002900050036001800DC
:104E50000B0024000C0001006E0058000500420009
:104E60002A00070037001900070025000D00100078
:104E7000DD024D02C5014501FD0003001A003200AC
:104E80004A0000000000000005007A0062000700F0
:104E900049002D000F002B00130003002D000F0010
:104EA00001007B00630003004A002E0002002C007A
:104EB00014000D002E00100011002F038702FB01CB
:104EC0006F011B0103001E0036004E0000000000B1
:104ED0000000010087006B000A004A002E0001005C
:104EE0003200160002002A000E00050088006C0047
:104EF00001004B002F000F003300170011002B00A2
:104F00000F0012008503D10233028D013901030025
:104F10001E0038005200000000000000050096004E
:104F20007800090045002B00110032001600020035
:104F30002A000E00010097007900040046002C00B2
:104F400001003300170013002B000F001300DF03D4
:104F50001B037302BD01550103001E003A005600F9
:104F600000000000000003008D00710003004600F7
:104F70002C0011002F001500090027000D0004006F
:104F80008E0072000B0047002D0004003000160058
:104F9000100028000E0014003D045D039D02E50191
:104FA0008101030022003E005A00000000000000C2
:104FB000030087006B000300430029000F00360048
:104FC00018000F002B000F00050088006C000D007A
:104FD00044002A000500370019000A002C001000C8
:104FE00015008404A403CA020002960104001C00F8
:104FF000320048005E0000000000040090007400D1
:10500000110044002A0011003200160013002E0087
:105010001000040091007500000000000000060070
:105020003300170006002F0011001600EA04EE03FB
:105030000E033802BA0104001A0032004A0062006E
:105040000000000002008B006F0011004A002E00DB
:10505000070036001800220025000D0007008C0014
:105060007000000000000000100037001900000070
:10507000000000001700540546045C036602D001DE
:1050800004001E0036004E00660000000000040010
:105090009700790004004B002F000B003600180029
:1050A00010002D000F00050098007A000E004C0043
:1050B00030000E00370019000E002E0010001800FE
:1050C000C205960492039802020204001C003600F6
:1050D00050006A0000000000060093007500060002
:1050E00049002D000B00360018001E002E00100095
:1050F0000400940076000E004A002E0010003700D5
:10510000190002002F00110019003406FC04E80306
:10511000CE021A02040020003A0054006E00000083
:105120000000080084006A0008004B002F00070000
:105130003600180016002D000F00040085006B00DB
:105140000D004C0030001600370019000D002E0035
:1051500010001A00AA065A052604F202540204009E
:105160001E003A0056007200000000000A008E0087
:10517000720013004A002E001C00320016002100AD
:105180002E00100002008F00730004004B002F005F
:1051900006003300170004002F0011001B00240735
:1051A000BC05680428037402040022003E005A0073
:1051B000760000000000080098007A001600490000
:1051C0002D000800350017000C002D000F00040012
:1051D00099007B0003004A002E001A0036001800D8
:1051E0001C002E0010001C008107FB05A9046703AA
:1051F000950205001A0032004A0062007A000000A1
:10520000030093007500030049002D0004003600E0
:1052100018000B002D000F000A0094007600170004
:105220004A002E001F00370019001F002E0010003A
:105230001D0003085F06F3048F03BD0205001E0076
:1052400036004E0066007E000000070092007400E9
:10525000150049002D0001003500170013002D0036
:105260000F0007009300750007004A002E0025007C
:10527000360018001A002E0010001E008908C7060C
:105280005D05D903E90205001A0034004E006800EC
:105290008200000005009100730013004B002F00F6
:1052A0000F003600180017002D000F000A009200B2
:1052B00074000A004C003000190037001900190072
:1052C0002E0010001F0013093307AF05090419034E
:1052D00005001E00380052006C00860000000D0022
:1052E0009100730002004A002E002A0036001800C8
:1052F00017002D000F000300920074001D004B00EA
:105300002F000100370019001C002E0010002000A3
:10531000A109A30705065B044D03050022003C001C
:10532000560070008A0000001100910073000A000E
:105330004A002E000A003600180013002D000F004E
:1053400000000000000017004B002F002300370072
:10535000190023002E0010002100330A17085F06F1
:105360009304850305001E003A00560072008E006B
:1053700000001100910073000E004A002E001D0075
:10538000360018000B002D000F0001009200740081
:1053900015004B002F001300370019002E002E00BF
:1053A00010002200C90A8F08BD06CF04C103050002
:1053B00022003E005A007600920000000D0091008D
:1053C00073000E004A002E002C00360018003B002F
:1053D0002E00100006009200740017004B002F00F2
:1053E00007003700190001002F00110023003C0BBB
:1053F000020914070605DA0306001E0036004E00F7
:1054000066007E0096000C00970079000C004B00AF
:105410002F0027003600180016002D000F0007008F
:1054200098007A001A004C0030000E003700190076
:1054300029002E0010002400DA0B82097A074A05A1
:105440001E040600180032004C00660080009A001E
:1054500006009700790006004B002F002E00360052
:10546000180002002D000F000E0098007A002200A4
:105470004C0030000A003700190040002E001000D8
:1054800025007C0C060AC8079205480406001C008B
:10549000360050006A0084009E00110098007A00D7
:1054A0001D004A002E0031003600180018002D00A3
:1054B0000F00040099007B000E004B002F000A0033
:1054C000370019002E002E0010002600220D8E0A33
:1054D0003608DE057604060020003A0054006E000F
:1054E0008800A200040098007A000D004A002E00F7
:1054F0003000360018002A002D000F00120099001D
:105500007B0020004B002F000E0037001900200008
:105510002E0010002700CC0DFC0AA8082E06C60499
:1055200006001A00360052006E008A00A600140021
:105530009300750028004B002F002B003600180048
:105540000A002D000F0004009400760007004C00B4
:10555000300016003700190043002E00100028000C
:105560007A0E8C0B1E098206FC0406001E003A000F
:10557000560072008E00AA001300940076001200FC
:105580004B002F0022003600180014002D000F00E1
:105590000600950077001F004C0030002200370005
:1055A00019003D002E001000010204081020408068
:1055B0001D3A74E8CD8713264C982D5AB475EAC964
:1055C0008F03060C183060C09D274E9C254A9435E9
:1055D0006AD4B577EEC19F23468C050A142850A0E3
:1055E0005DBA69D2B96FDEA15FBE61C2992F5EBCA0
:1055F00065CA890F1E3C78F0FDE7D3BB6BD6B17F3F
:10560000FEE1DFA35BB671E2D9AF43861122448885
:105610000D1A3468D0BD67CE811F3E7CF8EDC7936C
:105620003B76ECC5973366CC85172E5CB86DDAA94E
:105630004F9E214284152A54A84D9A2952A455AA56
:1056400049923972E4D5B773E6D1BF63C6913F7E04
:10565000FCE5D7B37BF6F1FFE3DBAB4B963162C4DD
:1056600095376EDCA557AE4182193264C88D070E9E
:105670001C3870E0DDA753A651A259B279F2F9EFB8
:10568000C39B2B56AC458A09122448903D7AF4F509
:10569000F7F3FBEBCB8B0B162C58B07DFAE9CF83DD
:1056A0001B366CD8AD478E010000011902321AC6B4
:1056B00003DF33EE1B68C74B0464E00E348DEF81CB
:1056C0001CC169F8C8084C71058A652FE1240F21B7
:1056D00035938EDAF01282451DB5C27D6A27F9B97D
:1056E000C99A09784DE472A606BF8B6266DD30FD6B
:1056F000E29825B31091228836D094CE8F96DBBDE8
:10570000F1D2135C833846401E42B6A3C3487E6E76
:105710006B3A2854FA85BA3DCA5E9B9F0A15792BCD
:105720004ED4E5AC73F3A7570770C0F78C80630DB8
:10573000674ADEED31C5FE18E3A5997726B8B47C3B
:10574000114492D92320892E373FD15B95BCCFCD10
:10575000908797B2DCFCBE61F256D3AB142A5D9EF3
:10576000843C3953476D41A21F2D43D8B77BA476A3
:10577000C41749EC7F0C6FF66CA13B52299D55AACA
:10578000FB6086B1BBCC3E5ACB595FB09CA9A051FF
:105790000BF516EB7A752CD74FAED5E9E6E7ADE8F9
:1057A00074D6F4EAA85058AF57E59295EE6615FB0B
:1057B000432E3D7646405E202D4A98B06456646A7A
:1057C0006882DACE8C4E08B73D5BCA25333A3AED93
:1057D0008C7C05636978686B6D66A14C035BBF9335
:1057E000A9B6C2E1782B8BCE4E2BEF7BCED6931889
:1057F000639627F3A388D7EA9E5EB86176AA4FBB6B
:105800009894FCB305626099113C4F323DA31ABBDA
:10581000CAB4DDE153EF9CA4D4D4BCBED2ABF7F242
:105820005DE60E6DDD35C84A08AC6250DB86A069C6
:10583000A5E7E5798730D375FB7E9FB4A998C0E2D0
:10584000E4DA6F0075E85760E315AD7D9E0267B638
:10585000761191C96F1CA535A115F58E0D6630E343
:105860009991DA46A8DFC868E0EA6CB46EBEC393CB
:10587000CD1BE8C9152BF5572AC3D477F225097B30
:1058800029AD9198D81FB3B632306E56EF60DE7DE9
:105890002AADE2C1E0829C25FBD8EE28C0B40A06FE
:1058A0006ABEF9A70443D18A8A20F27B591B78B9D2
:1058B000509C2645AB3C1CDE5034FEB9DCF16F4DEC
:1058C000925E1A156C13695E71C1568CA37D3A9E67
:1058D000E5EFDA673846723DB781A70D623E813346
:1058E000C8B76210AC1FF6EA3C987300A79871F82D
:1058F000EE6B123FDA2557D269B1784A79C475FB4D
:1059000071E91E789F2226E4E63BF35F31DAB0A40A
:1059100014412D6F2751317671DEC1FAF2A8D929D1
:10592000A4F7B11EEE1278993CC13B744FA1FC6202
:1059300080CD80A1F739A338EB6A351ABBAEE26897
:10594000AA07AF23B57258292FA37D864814E835DE
:10595000230FFA67DDE6191289E700033AF2DDBF8B
:105960006E54E608BC6A60930F838B2265DF27655F
:10597000D5C7EDFEC97BABA2C2753260BE073D79CB
:1059800047F64537A8BC59F3BF19487B09910EF774
:1059900001EE2C4E8F3EE07E767244A334C2D99342
:1059A000CCA92582716649B5705E5870FDE0CA7356
:1059B000BB6359053671812C3A1087D8A9D32401CD
:1059C00004603CF14968EA08F9F577AE34199DE0C6
:1059D0002BCADF13520FE419C482D3923C18FB5A2E
:1059E0002766F03DB23F2E7B7312DD6F87A0B6CDE8
:1059F0006BCE5F9678B85B15F79C8CEEBF0B5EE3C1
:105A00005432A327226CE87D9DA1A409762ED16390
:105A1000CBC12303D16FC3F2CBE12E0D20A07ED1E9
:105A200082A0F2D7F24B4D2ABD2071417C45E47231
:105A3000EBAF7CAAD7E885CD743256BA32DCFB597D
:105A4000C02E567F7C13B8E997D7160E3B9125F2EE
:105A5000CB86FE59BE5E3B417C7164E9EB79164C06
:105A6000566127F2C8DC6521EFFE7433B71AC957B7
:105A7000D2DD71152E412D32EEB8F9E1663AD1DA58
:105A80006DA51A5FB8C034F523FEEEAFAC4F7B199D
:105A90007A2B786CD75080C9EB08993B651FC64CB0
:105AA0001F9C6A786B9DA4D87074025BF8A324C90C
:105AB000CAE50690FE9B87D0AAD10C8B7F8EB6F9E3
:105AC000B1AEBE1C0A55EFB8657C98CE6017A33DF9
:105AD0001BC4F7979ACACF143D0A52741AF7421B97
:105AE0003E6BFCB6C8B9EB37FBF2D2909AEDB08DA5
:105AF000C0F898F9CE55FD8E41A57D17181E7AF095
:105B0000D60681DA1D917F86CEF5751D293F9F8EC1
:105B1000E97D947B6B8C1A0C098DF3C5E2C5DB2DF6
:105B2000D365DB781CB57F0664F702CDC63973DB1D
:105B3000656DA0522526EE31A0D179560B7C1EB59D
:105B40005419C2574166BEDC461BD110590721F0DB
:105B500041CA716247DFF876D65E007A251702E403
:105B60003A790769874EF376464CDF594832466FDB
:105B7000C211D47EB523DD75EB0BE595937BD5285B
:105B80007306C8641AF6B6DA7FD724BA6E6A2D3364
:105B9000AF09079E9F3144775C7BB1CCBBFEC84EFA
:105BA0008D95771A7F35A05DC7D41D18919CD0962E
:105BB000DAD104D85B2FB8922F8CC3C37DF2EE3FAD
:105BC000636C8CE6F21FCC0BB2F3D99CD5E705765B
:105BD000DEB48888A2332E750DD751118BF7C5AB73
:105BE0005FAD4189B2446F5F652948D6A9C55F079B
:105BF0002C9A4D6FEC28798F3F5750FDF07ED94D90
:105C000022E86A32A8524C92436AAB19845D2D692E
:105C1000F79FDF21E05D4D465AA020FE2B9654658C
:105C2000BECD85343CCAA5DCCB975D540F54FDAD89
:105C3000A059E334C7615FE734B1297D89F1A6E15A
:105C40007602362052D7AFC62BEEEB1B65B87F032A
:105C50000508A3EE0A0C0E090B0D081010080A0C1B
:105C6000805C000800000020681600006C0100083D
:105C7000E46100086816002060170000C8010008F1
:105C80001184A24A040009FF01020304060708095F
:105C9000713A80012CC0C0C007016F1F06060303C4
:105CA000030101100C8181C1E3F7FFFFFF7F3F1E5D
:105CB0006808F0F8F8FCFCBC9C0112043AFC011DD9
:105CC000F8F0E0C0A0191C22FCD924112A20101DD4
:105CD000FCFCDCDC0D551C1C1C0C2AC0261A7C1795
:105CE0001BF0E0393A6023BADC233B7E7F01213888
:105CF0000803070F1F3F3F7E641B1F3F135B736347
:105D00000113616039232C010307194A7C302A1FD3
:105D10000799241D40606161091D6767676F191E3F
:105D20007E7E7C60785C38081F0743606060631388
:105D3000DB7C702302153C0009FF01010303070609
:105D4000060401734D80E0E0F00100086BE0E0E044
:105D5000C0C08080CEC0E0F8FEFF01380C7F078015
:105D6000FCFEFCFCF8F8F0F8951AF80163FCFC1B4B
:105D70000C709D1CF00CF0B51B700C051E40202013
:105D80002040135AFE0C6B20400829C52AE00B3A2C
:105D9000C00529E7692DB14F7C7F3F3FBF9F01D8E8
:105DA0000BBF3F7F7FFFFF3F07E0F891190192078C
:105DB0002B07180C4906111C0709110122091A1F8B
:105DC0000C1B0810016A0808292019169905792D5D
:105DD00091DBE0FCFC12FE380A80F8F8F3F7E7EFFD
:105DE000EFCF01000954EFCFEFEFEFE707032BC030
:105DF000F07D1B7FFFF519F72901137F0FFAF0FAE9
:105E0000031EBF0F1306F816C0380638C023F80665
:105E10001CF80402017A0608012A1C010103E67E2F
:105E20000F1F1F1F3F0106221F3F1F1F0719387931
:105E3000061A01778B03010801FF0134080A658007
:105E4000E0F0F8F8FCFE7E0E6F180980C0C0C0E0DC
:105E5000E0E0F004380CE0C0C0808F8FCFCFC7E304
:105E6000E30F19100210C0131EE016C0380638C028
:105E700023E01E1BF0480122701AFF0B3D080808A2
:105E800010062308F02AF807490B692401130E1B9A
:105E9000C0F0FCFEFF01F61F0F0703018A03061B7B
:105EA0000102011920190D290BAA011169046913B6
:105EB00001120A1C207C19010318E4802402FE024E
:105EC0001BFE4201223C5BFF10EB69FE69100918C2
:105ED000FB49C40B1E073F820E12FEFCFC381080EB
:105EE0001A038029E22112801A03A71A800D1C814F
:105EF0008282EB3C8080835D091AFBA118090107AF
:105F00000F1F3F7FFF7F6C18087F7F7F3F7F3F3FE2
:105F100007290E29100D1D3F0F0F034021200807F0
:105F20001806010618075E0F101010090601FF0180
:105F3000B7480880C0FFFFF0F0F8010710F0F0FF4D
:105F4000FFC0802B18E028347038C01BE0180B1CF1
:105F5000404040262AF816190B590729371AC0095C
:105F60004CC080C00D59270917781AC01D2B9CBF43
:105F7000013BBCBC07790A5A9C1E912507381C03BB
:105F800035031C300F1C0F12220112131A3F0B1D78
:105F900030202020071A10071A101C191349052950
:105FA0001C592701172AFF014906091001591E0132
:105FB0005C0F161F3F3F3F1F8080391E011B32C000
:105FC0004B8080092D804040400F4907012E1B0166
:105FD0000301397399080322030128090F300C03C8
:105FE000030C300F0A7C2020200701346973398D9F
:105FF0000915F00A2EE001011702338008092BC0B1
:10600000F87E7F3F1F1F0F0121200C0738C0700C46
:10601000030C70C038072778D4949494581AFF0B57
:106020001A84015A480822782EFC040404F80489D2
:1060300026B97D64FF4F030A12F00172707AE012F4
:10604000024A302CE0F8FF0145F8E0C08038080132
:1060500003070F1F3F7F1439015C3F0F01286AFEC1
:106060001219ECF11808468989899191623F1C0147
:1060700001FF0421200AFF030E1820180603FF2742
:1060800042818989C9760F12C2C1A19189867D6931
:106090000157FEFCF8F0C0C0BC03073F7D69230A2E
:1060A000101F7D013A0A140301414E80E0FC3F07B6
:1060B0007D0B29C0FC7D1F030C300E010E04211B3B
:1060C0001E21018A1208012A1B020286497DA9A508
:1060D00001D0100B08183878F8F878381808151817
:1060E000143E1006473E222ABA804DE0E0F808012F
:1060F0008AE8011308F81BF88801390652F8137F63
:106100007F137878137C7C2B7E7E0C190301464D1F
:1061100007071F10018A170113101F2912121F29C8
:106120001C221F2B0282013AFE060212024A400183
:106130005A7F08091020000E12484848FF4848427C
:10614000A29E82A2C2BE180A80601F207F444440E3
:106150004F280B50484F400A1001122C0203040430
:1061600000091E060708090204060813A857792229
:106170009AAF0C5AB90C1AC6081AD5041AE5045A73
:10618000F6144B0858085A1C085A32085A4A085A3A
:1061900064085A80085A9E085ABE085AE0084B0400
:1061A00059085A2A085A52085A7C085AA8085AD636
:1061B000084B065A085A38085A6C085AA2085ADA84
:1061C000084B145B085A50085A8E085ACE088B1098
:1061D0005CE80118000D007F415D5D5D417F1F118E
:0461E00015111F0076
:0400000508000131BD
:00000001FF
