:020000040800F2
:10000000000400201F0200082D0200082F02000833
:100010003102000833020008350200080000000029
:10002000000000000000000000000000370200088F
:1000300039020008000000003B0200083D020008F1
:100040003D4A00083F0200083F0200083F02000846
:100050003F0200083F020008710F00083F0200083D
:10006000A50F0008D90F00080D1000083F02000876
:100070003F0200083F0200083F0200083F0200085C
:100080003F0200083F0200083F0200083F0200084C
:100090003F0200083F0200083F0200083F0200083C
:1000A0003F0200083F0200083F0200083F0200082C
:1000B0003F0200088D4800083F0200083F02000888
:1000C0003F0200083F0200083F0200083F0200080C
:1000D0003F020008814900083F0200083F02000873
:1000E0003F0200083F0200083F0200083F020008EC
:1000F0003F0200083F0200083F0200083F020008DC
:100100003F0200083F020008BD4800083F02000807
:100110003F0200083F0200083F0200083F020008BB
:100120003F0200083F0200083F0200083F020008AB
:1001300000F002F800F062F80AA090E8000C824497
:100140008344AAF10107DA4501D100F057F8AFF274
:10015000090EBAE80F0013F0010F18BFFB1A43F0A5
:10016000010318479C6F0000BC6F00000A444FF069
:10017000000C10F8013B13F0070408BF10F8014B06
:100180001D1108BF10F8015B641E05D010F8016B4B
:10019000641E01F8016BF9D113F0080F1EBF10F8AF
:1001A000014BAD1C0C1B09D16D1E58BF01F801CBD2
:1001B000FAD505E014F8016B01F8016B6D1EF9D555
:1001C0009142D6D37047000000230024002500266A
:1001D000103A28BF78C1FBD8520728BF30C148BFAA
:1001E0000B607047642900F09380782900F0CC8080
:1001F000002070471FB51FBD10B510BD00F0E4FA18
:100200001146FFF7F7FF04F0AFFC00F002FB03B468
:10021000FFF7F2FF03BC04F031FC000070470B480D
:1002200080470B4981F308880A480047FEE7FEE74C
:10023000FEE7FEE7FEE7FEE7FEE7FEE7FEE7FEE796
:1002400005480649044A064B704700001D02000895
:10025000A8B6002031010008A8AE0020A8B60020F2
:10026000A8AE0020704700000FB4044910B503AADF
:10027000029800F0FDF910BC5DF814FB500100205D
:100280000FB41CB5074B06AA7B446946009005983D
:1002900000F0D5F90020694600F0E4F91CBC5DF8D7
:1002A00014FB0000D90300002DE9F0410E4604467E
:1002B000002020622046E168884730B3252805D019
:1002C000D4E901219047206A401CF2E7E16820460A
:1002D00000278847050018D0A5F14100192802D849
:1002E00020354FF400673246294620462760FFF745
:1002F00079FF40B1012804D0F61D26F00706083624
:10030000D8E7361DD6E72846DAE7206ABDE8F0814F
:100310002DE9F0410646002410687529314616A5DE
:1003200010D0AFF30080002802DA404213A507E0A6
:1003300031688A0701D512A502E0490704D511A545
:10034000012401E0AFF3008000210A2206F1240716
:1003500009E0B0FBF2FCB0FBF2F302FB1C00303012
:1003600078541846491C0028F3D123462A463046C3
:10037000BDE8F04100F005B9000000002D000000CC
:100380002B0000002000000070B504460D462146F9
:100390001068AFF300802188090502D50F4A7A441E
:1003A00002E00E4A7A440E32002104F1240305E0F3
:1003B00000F00F060009965D5E54491C0028F7D135
:1003C00020780023000704D5702D02D009B1022344
:1003D00011322046BDE8704000F0D3B8366D000001
:1003E00010B5431C02E010F8011B71B18107FAD16E
:1003F0004FF0013202C88C1A8C4314EAC211F9D0B2
:10040000C01A0A0603D0C01E10BDC01A10BD0A04CF
:1004100001D0801E10BD0902FCD0401E10BD032A71
:1004200040F2308010F0030C00F0158011F8013B11
:10043000BCF1020F624498BF11F801CB00F8013BF8
:1004400038BF11F8013BA2F1040298BF00F801CBBC
:1004500038BF00F8013B11F0030300F01B81083A9C
:10046000C0F0088051F8043B083A51F804CBA0E8EA
:100470000810F5E7121D5CBF51F8043B40F8043B3F
:10048000AFF30080D20724BF11F8013B11F801CB74
:1004900048BF11F8012B24BF00F8013B00F801CB45
:1004A00048BF00F8012B7047431A28BF9A427FF6D5
:1004B000B6AF032A1044114440F2268010F0030F17
:1004C0001EBF11F8013D521E00F8013D10F0030F50
:1004D0007FF4F6AF11F0030300F02181083AC0F079
:1004E0000B8051F8043D083A51F804CD40F8043D22
:1004F00040F804CDFFF7F3BF121D5CBF51F8043D77
:1005000040F8043DAFF30080D20724BF11F8013D4D
:1005100011F801CD48BF11F8012C24BF00F8013DAE
:1005200000F801CD48BF00F8012C70474FF00002E1
:100530000429C0F0128010F0030C00F01C81CCF1F3
:10054000040CBCF1020F18BF00F8012BA8BF20F863
:10055000022BA1EB0C0100F00EB95FEAC17C24BFB5
:1005600000F8012B00F8012B48BF00F8012B704761
:1005700070477047704700000048704744AE002045
:1005800070472DE9F0470D4699469246044600F122
:1005900024080168880604D5E06921F01001216073
:1005A00000E00120A84201DD471B00E00027A1690F
:1005B0007A1902EB0900081AA0612078C00602D45B
:1005C0002046AFF30080002608E0D4E901211AF8A4
:1005D00006009047206A401C761C20624E45F4DBE2
:1005E0002078C0060AD52046AFF3008006E0D4E9A3
:1005F000012130209047206A401C2062381EA7F15C
:100600000107F4DC07E0D4E9012118F80500904760
:10061000206A401C2062281EA5F10105F3DC20465B
:10062000AFF300802078000602D50220BDE8F087F5
:100630000120FBE701694A1C02610878704700B598
:100640008FB0CDE901310021059105497944CDE90B
:10065000031011466846FFF727FE0FB000BD0000EB
:10066000E5FFFFFF0A6802F8010B0A60704700000F
:10067000074B70B50D467B44FFF7E1FF0446284663
:1006800000F09EF810B14FF0FF3070BD204670BDF5
:10069000C344000010B5203AC0F00B80B1E81850F8
:1006A000203AA0E81850B1E81850A0E81850BFF45C
:1006B000F5AF5FEA027C24BFB1E81850A0E81850FB
:1006C00044BF18C918C0BDE810405FEA827C24BF4F
:1006D00051F8043B40F8043B08BF7047D20728BFDD
:1006E00031F8023B48BF11F8012B28BF20F8023B2C
:1006F00048BF00F8012B7047431A28BF9A427FF683
:10070000C9AF104410F0030F11441EBF11F8013D92
:10071000521E00F8013D10F0030F7FF4F6AF103ABF
:10072000C0F00A8010B531E91850103A20E918508D
:10073000BFF4F9AFBDE81040530724BF31E90810FA
:1007400020E9081044BF51F8043D40F8043D12F080
:10075000030F08BF7047D20728BF31F8023D48BFDA
:1007600011F8012C28BF20F8023D48BF00F8012CE9
:1007700070474FF0000200B5134694469646203964
:1007800022BFA0E80C50A0E80C50B1F12001BFF44A
:10079000F7AF090728BFA0E80C5048BF0CC05DF8B0
:1007A00004EB890028BF40F8042B08BF704748BFFE
:1007B00020F8022B11F0804F18BF00F8012B704772
:1007C000007B00F0800070477546FFF7D5FEAE460F
:1007D00005006946534620F00700854618B020B54D
:1007E000FFF72EFDBDE820404FF000064FF0000758
:1007F0004FF000084FF0000B21F00701AC46ACE8C9
:10080000C009ACE8C009ACE8C009ACE8C0098D4635
:10081000704710B50446AFF300802046BDE8104095
:10082000FFF7F5BC0146302905DB392903DCA1F1CE
:100830003000C0B27047412905DB5A2903DCA1F121
:100840003700C0B2F6E7202901D12420F2E724299D
:1008500001D12520EEE7252901D12620EAE72A2922
:1008600001D12720E6E72B2901D12820E2E72D2915
:1008700001D12920DEE72E2901D12A20DAE72F290C
:1008800001D12B20D6E72C20D4E700000A4880694C
:1008900040F00800084988610848006820F00F000F
:1008A000064908600846006840F003000860002020
:1008B000034908607047000000100240040C01402A
:1008C000A08121422DE9F04100200024002235E0E2
:1008D00000212DE001264B1C1FE0B1275743DFF814
:1008E00030C467447F5C07F0110717B94FF0010C63
:1008F00001E04FF0000CB1275743DFF81484474460
:10090000FF5C07F011070FB9012700E00027BC4585
:1009100001D1761C00E004E05B1CFE4F3F68BB4247
:10092000DBDB00BF052E01DBB71E3844591E491C16
:10093000F84E3668361F8E42CCDC521CF54E3668B7
:10094000B242C5DB002235E000212DE001264B1C20
:100950001FE0B1274F43DFF8B8C36744BF5C07F01F
:10096000110717B94FF0010C01E04FF0000CB1274F
:100970005F43DFF89C834744BF5C07F011070FB962
:10098000012700E00027BC4501D1761C00E004E00F
:100990005B1CE04F3F68BB42DBDB00BF052E01DB89
:1009A000B71E3844591E491CDA4E3668361F8E422F
:1009B000CCDC521CD74E3668B242C5DB00225EE06A
:1009C000002156E0B1265643D14F3E44765C06F0F6
:1009D00011060EB9012700E00027561C4FF0B10C9C
:1009E00006FB0CF6DFF828C36644765C06F01106B9
:1009F0000EB9012600E00026B74239D1B126564390
:100A0000C34F3E44765C06F011060EB9012700E0A4
:100A10000027B1265643DFF8F8C2B4444E1C1CF838
:100A2000066006F011060EB9012600E00026B74266
:100A30001ED1B1265643B64F3E44765C06F01106F1
:100A40000EB9012700E00027561C4FF0B10C06FB41
:100A50000CF6DFF8BCC2B4444E1C1CF8066006F06D
:100A600011060EB9012600E00026B74200D1C01CD5
:100A7000491CA84E3668761E8E42A3DC521CA54E39
:100A80003668761E96429BDC0022B4E00021ABE083
:100A900049B1B12656439E4F37444E1EBE5D06F007
:100AA0001106002E6CD1B1265643994F3E44765C18
:100AB00006F01106002E63D0B126564337444E1C73
:100AC000BE5D06F01106002E5AD1B1265643904F56
:100AD00037448E1CBE5D06F01106002E50D0B126A4
:100AE00056438B4F3744CE1CBE5D06F01106002ED8
:100AF00079D0B1265643864F37440E1DBE5D06F0B1
:100B00001106EEB3B1265643814F37444E1DBE5DEC
:100B100006F01106A6BBB12656437D4F37448E1D05
:100B2000BE5D06F011065EB37A4E3668F61F8E4241
:100B300008D0B1265643764F3744CE1DBE5D06F031
:100B40001106EEB9022908DBB1265643704F37442F
:100B50008E1EBE5D06F01106BEB9032908DBB12664
:100B600056436B4F3744CE1EBE5D06F0110666B984
:100B7000042937DBB1265643654F37440E1F00E08A
:100B800031E0BE5D06F0110666B3624E3668083E7F
:100B90008E4209DDB12656435D4F374401F1080608
:100BA000BE5D06F01106F6B95A4E3668093E8E4211
:100BB00009DDB1265643564F374401F10906BE5DA3
:100BC00006F011067EB9534E36680A3E8E4209DDA4
:100BD000B12656434E4F374401F10A06BE5D06F07A
:100BE000110606B92830491C4A4E3668B61F8E4297
:100BF0003FF74EAF521C474E3668B242FFF646AF43
:100C00000022B8E00021AFE049B14E1EB1277E437B
:100C10003F4F3E44B65C06F01106002E5AD1B12675
:100C20004E433B4F3E44B65C06F01106002E51D0B9
:100C30004E1CB1277E43364F3E44B65C06F011068B
:100C4000002E47D18E1CB1277E43314F3E44B65C07
:100C500006F01106F6B3CE1CB1277E432C4F3E445E
:100C6000B65C06F01106AEB30E1DB1277E43284FC9
:100C70003E44B65C06F0110666B34E1DB1277E43B6
:100C8000234F3E44B65C06F011061EBB8E1DB127F5
:100C90007E431F4F3E44B65C06F01106D6B11D4E92
:100CA0003668F61F8E4208D0CE1DB1277E43184FFE
:100CB0003E44B65C06F0110666B9022908DB8E1EBA
:100CC000B1277E43124F3E44B65C06F01106BEB912
:100CD000032900E047E008DBCE1EB1277E430C4F1E
:100CE0003E44B65C06F0110656B904293ADB0E1FE5
:100CF000B1277E43064F3E44B65C06F011068EB324
:100D0000044E3668083E8E420EDD01F1080603E00F
:100D10006201002020010020B1277E43384F3E446D
:100D2000B65C06F01106F6B9364E3668093E8E42BC
:100D300009DD01F10906B1277E43314F3E44B65C1F
:100D400006F011067EB92F4E36680A3E8E4209DD46
:100D500001F10A06B1277E43294F3E44B65C06F0F6
:100D6000110606B92830491C264E3668B61F8E4239
:100D70003FF74AAF521C234E3668B242FFF642AFED
:100D8000002210E0002109E0B12656431C4F3E44EA
:100D9000765C06F0110606B9641C491C194E3668CB
:100DA000B142F1DB521C174E3668B242EADB6426D0
:100DB0006643144F3F687F4396FBF7F6C6F1320651
:100DC000002E09DD642666430E4F3F687F4396FB85
:100DD000F7F6C6F1320509E064266643094F3F681D
:100DE0007F4396FBF7F6C6F132067542052695FB62
:100DF000F6F606EB860600EB4600BDE8F081000043
:100E000062010020200100202DE9F04385B08146D9
:100E1000484600F021F94FF6FF704FF4A073F0221E
:100E200028210090002001F06FF9434843A1026897
:100E300002A8FFF725FA02A810210B46C822CDE927
:100E4000001028210A2003F031F83B480068F02107
:100E5000B1EB400F0CDA3BA010210B46C822CDE9C4
:100E600000103C210A2003F021F805B0BDE8F08312
:100E7000002409E0304800686043F021B1EB400FE6
:100E800000DA03E0601CC4B20A2CF3DB00BF601E72
:100E90004FF6FF7101EA4005274909686943C1F12E
:100EA000F00000EBD071C1F34F074FF050082A4615
:100EB0002BA102A8FFF7E4F902A810210B46C822D3
:100EC000CDE900103C210A2002F0F0FF00242CE0C4
:100ED000002624E0B120604324490844805D0128B5
:100EE0001BD1002006F1010C05FB0C8CACF1010CB0
:100EF0001FFA8CF304F1010C05FB0C7CACF1010C26
:100F00001FFA8CF205FB068C1FFA8CF105FB047CA2
:100F100000901FFA8CF001F0F7F8701CC6B206487A
:100F200000688642D6DB601CC4B203480068844275
:100F3000CEDB00BF99E700002001002073697A65CD
:100F40003A25640054686520515220436F6465203F
:100F5000697320746F6F206C6172676521000000F7
:100F600070696F6E743A2564000000006201002011
:100F700010B50A2003F0A6FD07480068012807D134
:100F80000648006808B9012000E000200349086015
:100F900001200349086010BD00012142A0812142C7
:100FA0001404014010B50A2003F08CFD07480068C6
:100FB00038B90748006808B9012000E0002004495A
:100FC000086004200349086010BD000008012342A6
:100FD000948121421404014010B50A2003F072FDEF
:100FE0000848006848B907488830006808B90120F7
:100FF00000E00020034988310860082002490860A9
:1010000010BD00000C0123421404014010B50A2059
:1010100003F058FD0C48006888B90C48006808B90E
:10102000012000E00020094908600948D0F8940137
:1010300008B9012000E00020034984310860102035
:101040000449086010BD0000100123429481214230
:1010500000002342140401402DE9F14F8CB001201F
:101060000B900A90EC2006904FF00008002600201C
:101070000990C0490860C04908600998002801DD4E
:10108000099802E00C98FFF7ABF90890089818B996
:1010900000200DB0BDE8F08F089ADDE90B0100F0EB
:1010A0000BFE8246BAF1000F01D10020F1E70B9848
:1010B00018B9B248C0F800A00EE00B98824503DCD6
:1010C000AE490B98086007E00A9818B1AB48C0F821
:1010D00000A001E00020DCE7A848006800EB8001E8
:1010E00001EB4010A64901EB4000001DA149096831
:1010F00030F81170A3480068C0EBC700042801DD78
:10110000042003E09F480068C0EBC70007900798E1
:10111000002807DD00219B48079A006803F01EF8AD
:101120009849086097490968C81DC11700EB5171BB
:10113000CC100AE09449069808550698EC2801D18D
:10114000112000E0EC200690641CBC42F2DB8B48CE
:10115000006800EB800101EB4010894901EB400081
:1011600040888A490860084601688948FFF7DEF927
:101170008248006800EB800101EB4010804901EBE0
:1011800040001A307B49096801EB410130F8110039
:1011900005907A48006800EB800101EB4010784927
:1011A00001EB400032307349096801EB410130F82E
:1011B00011100491DDE9041000EB010B6F48006889
:1011C00000EB800101EB40106D4901EB40001A304B
:1011D0006849096801EB410100EB4100B0F8049057
:1011E0006648006800EB800101EB4010644901EBA8
:1011F000400032305F49096801EB410100EB4100DA
:101200008088039000240FE0002509E0404608F1A3
:1012100001085D49085C0BFB05615D4A50546D1C7B
:101220004D45F3DB761C641C05988442ECDB0024FE
:101230001CE0002515E04D4509DA404608F101089B
:101240005149085C0BFB0561514A505408E0404687
:1012500008F101084C49085C0BFB09414C4A505409
:101260006D1C03988542E6DB761C641C049884425E
:10127000DFDB4248006800EB800101EB4010404991
:1012800001EB40001A303B49096801EB410100EBDA
:1012900041004088A0EB090002903848006800EB4C
:1012A000800101EB4010364901EB400032303149FA
:1012B000096801EB410100EB410041880398081ADD
:1012C00001904FF00008002600241FE099213148CA
:1012D000FFF72CF92C4800EB08014A462D48FFF790
:1012E000E3F849462B48029A00F066FD002507E026
:1012F0002848405D0BFB05713144254A50546D1C54
:1013000002988542F4DBC844761C641C059884422C
:10131000DCDB002420E099211E48FFF707F91A487A
:1013200000EB08011B48039AFFF7BEF81948019A21
:10133000039900F041FD002507E01648405D0BFBD6
:1013400005713144124A50546D1C01988542F4DBFA
:1013500003988044761C641C04988442DBDB0748B5
:101360000068112101EB80000B49086000F0F4FBDC
:1013700001208EE6300100203C01002034010020D5
:10138000465E000824010020C37B00202C010020C1
:10139000679E0020E1AC0020200100202DE9F74FDE
:1013A00086B0074692460024A04640F68C31FE489F
:1013B000FFF7BCF800200546FC4908603EE00798AE
:1013C000401EA84207DD6A1CB95C785D00F05BFD39
:1013D00008B103230CE0785D00F06EFD08B1002336
:1013E00006E0785D00F02CFD08B1012300E0022347
:1013F0000DB9EF480370EE48EC490968405C98422B
:1014000006D0EA480068401CE8490860E8490B54E7
:10141000E548E6490968405C401CC1B2E248E34A3D
:1014200012688154032B08D1E0490968405C401CD4
:10143000DD49DE4A126888546D1C6D1C0798854290
:10144000BDDBDA480068401CD849086061E1002033
:101450000190D748005D20B9D549601C085C01287F
:1014600008D0D348005D01287ED1D149601C085CBA
:101470000028F9D1CC4A115DCD4A105D524600F0EA
:10148000C9FB8346C84B621C995CC94B985C5246A9
:1014900000F0C0FB0BEB00010591C348025D034661
:1014A000601C185C11185246012000F0B3FB814605
:1014B0000599494558DD012C28DB601EBC49085CB4
:1014C000022823D1601EB84A125CB748005D11188B
:1014D0005246022000F09EFB8346B34B621C995C8F
:1014E000B34B985C524600F095FB58440390601E45
:1014F000AD4A115C5246022000F08CFB00EB090162
:101500000398814204DA0020039001E00020039058
:10151000A6480068801EA0422ADDA549A01C085CE0
:10152000022825D1A04A115DA14A105D524600F063
:1015300071FB83469C4A601C125C9B4BA01C185C90
:1015400011185246022000F065FB58440290964A5A
:10155000A01C115C5246022000F05CFB00EB09016C
:101560000298814206DA00E0D1E00020029001E01A
:1015700000200290039858B1029848B1DDE90210AA
:10158000884202DA4FF0FF3000E0012001900AE0CB
:10159000039810B14FF0FF3004E0029808B1012029
:1015A00000E0002001900198F0B30198401CD0B9F0
:1015B000601E7D49085C095D0844C1B2601E7A4A1C
:1015C0001154254609E07A49681C085C485576495B
:1015D000681C095C744841556D1C74480068401EC5
:1015E000A842F0DC1CE00221714A601C11546E49D3
:1015F000095C6D4AA01C105C0844C1B2601C115407
:10160000A51C08E06A49681C085C48556649681CC6
:10161000085C48556D1C65480068401EA842F1DC16
:1016200062480068401E00E002E0604908606DE02A
:101630005E480068801EA04223DD5D49A01C085C56
:1016400001281ED15849601C095C574AA01C105C37
:101650000844C1B2601C1154A51C08E05449681C20
:10166000085C48555049681C085C48556D1C4F483B
:101670000068401EA842F1DC4C480068401E4B49FF
:10168000086001214A4801554748015D0246601C37
:10169000105C084411460855651C08E04449681C64
:1016A000085C48554049681C085C48556D1C3F481B
:1016B0000068401EA842F1DC3C480068401E3B49DF
:1016C0000860012C22DB601E3949085C01281DD10D
:1016D000601E3549085C095D0844C1B2601E324A8B
:1016E0001154254608E03249681C085C48552E49CB
:1016F000681C085C48556D1C2C480068401EA842B8
:10170000F1DC2A480068401E2849086001E0641C9A
:1017100000BF26480068401EA0423FF798AE002454
:10172000BBE0214A115D224A105D524600F072FA78
:1017300083461D4B621C995C1D4B985C524600F021
:1017400069FA584405901848025D0346601C185C0D
:1017500011185246022000F05DFA8146012C0ADB86
:10176000601E1349085C022805D1124810F80A00CF
:10177000001DA9EB00090D480068801EA0420ADD8B
:101780000B49A01C085C022805D10A4810F80A0081
:10179000001DA9EB0009059848457CDD012C2CDBD8
:1017A000601E0349085C07E0DB920020280100204E
:1017B0004F870020D270000802281ED1601EDD492C
:1017C000085C095D0844C1B2601EDA4A115425461E
:1017D00008E0D949681C085C4855D649681C085C73
:1017E00048556D1CD5480068401EA842F1DCD3481E
:1017F0000068401ED1490860641ED0480068801E01
:10180000A04223DDCC49A01C085C02281ED1C94996
:10181000601C095CC74AA01C105C0844C1B2601C73
:101820001154A51C08E0C449681C085C4855C1490E
:10183000681C085C48556D1CC0480068401EA842E2
:10184000F1DCBE480068401EBC4908600220BA496D
:101850000855B848015D0246601C105C08441146FA
:101860000855651C08E0B449681C085C4855B14936
:10187000681C085C48556D1CB0480068401EA842B2
:10188000F1DCAE480068401EAC490860012C00DB6A
:10189000641E02E0FFE7641C00BFA8480068401E09
:1018A000A0423FF73EAF0020A549086040F68C31CA
:1018B000A448FEF73BFE002527E19F48405DC0BBE2
:1018C000042201219E48006802F048FC9C490860FF
:1018D0009D4810F80A209748415D9948006802F039
:1018E0003DFC97490860002653E09248405D801E09
:1018F000B0421FDD08EB0600385C303864214843F5
:1019000008EB0601491C795C303901EB810100EBE1
:10191000410108EB0600801C385C30380844049014
:101920000A2287480499006802F018FC844908607C
:101930002EE036E07F48405D801EB04216D108EBB5
:101940000600401C385C303808EB0601795C303901
:1019500001EB810100EB41000490072278480499D3
:10196000006802F0FBFB7649086011E07148405DB9
:10197000401EB0420CD108EB0600385C30380490B1
:1019800004226F480499006802F0E8FB6C49086083
:10199000F61C6848405DB042A7DC6648405D804464
:1019A000B2E06548405D01284AD104220221644822
:1019B000006802F0D3FB62490860644810F80A200E
:1019C0005C48415D5E48006802F0C8FB5C49086005
:1019D00000262DE05748405D401EB04219DD08EB5F
:1019E0000601785CFEF71EFFC0EB001000EB400222
:1019F00008EB0601491C785CFEF714FF10440490C4
:101A00000B224F480499006802F0A8FB4C4908607B
:101A10000DE008EB0601785CFEF704FF0490062257
:101A200047480499006802F099FB45490860B61CD4
:101A30004048405DB042CDDC3E48405D804463E0BC
:101A40003D48405D022827D1042211463C480068E9
:101A500002F084FB3A4908603D4810F80A203548F6
:101A6000415D3748006802F079FB3549086000267F
:101A70000AE008EB0600395C08223148006802F0F1
:101A80006DFB2F490860761C2A48405DB042F0DCAF
:101A90002848405D804437E0042208212848006837
:101AA00002F05CFB26490860224810F805B029487E
:101AB00010F80A200BEBDB7041102148006802F09F
:101AC0004DFB1F490860002614E008EB4601491C45
:101AD000795C08EB4602BA5C01EB022000F02CFABC
:101AE00083460D2259461648006802F037FB144918
:101AF0000860761C0F49485D00EBD071B6EB610FB2
:101B0000E3DB0C48405D80446D1C0C480068854256
:101B100005DA0B480068401C00287FF4CEAE084868
:101B20000068401C18B1012009B0BDE8F08F00200A
:101B3000FAE70000DB9200204F87002028010020F8
:101B400024010020C37B0020CC700008CF70000867
:101B5000D2700008D57000082DE9F04147F66121E8
:101B60002948FEF7E3FC02F045FC02F031FB274870
:101B70000068401C00BB002024490860084600683B
:101B800002F020FD2148006802F096FBFEF79AFE65
:101B9000074601240EE0204602F014FD204602F024
:101BA0008BFBFEF78FFE0646BE4202DA3746174829
:101BB0000460641C072CEEDD1448006802F002FD8E
:101BC0001248006802F078FB002417E0002510E0BE
:101BD000B12060430C490844405D00F0110008B199
:101BE000012100E00021B1206043074A1044415523
:101BF0006D1C074800688542EADB641C04480068E5
:101C00008442E3DBBDE8F081620100203C0100205A
:101C100020010020F0B50446002324B1012C1CD083
:101C2000022C37D12FE0032091FBF0F51E48805C99
:101C3000001D0A2606FB0503032091FBF0F500FBBF
:101C40001510012802D0022804D101E01B1D02E07A
:101C5000DB1D00E000BF00BF23E0084601EBD076AB
:101C60007710124EB65C361D4FF00B0C0CFB07665E
:101C70000D4601EBD5777F10A1EB47074FF0060C1F
:101C80000CFB07630DE00A48805C001D082505FB7E
:101C9000010306E00748805C001D0D2505FB0103DC
:101CA00000BF00BF1846F0BDCC700008CF70000820
:101CB000D2700008D57000082DE9F04706460F469F
:101CC00090461B2E01DB022004E00A2E01DB0120DE
:101CD00000E0002081464D4663E02A4641463846F2
:101CE000FFF75CFB00285BD0EDB9012418E02F4919
:101CF0000968C81D04EB840101EB44112C4A02EB76
:101D00004101091D2B4A126831F81210C21700EB6D
:101D10005272B1EBE20F02DB2046BDE8F087641C93
:101D2000092CE4DD3CE0012D1CD10A2417E01F49F9
:101D30000968C81D04EB840101EB44111C4A02EB45
:101D40004101091D1B4A126831F81210C21700EB3D
:101D50005272B1EBE20F01DB2046DEE7641C1A2C65
:101D6000E5DD1DE0022D1BD11B2417E00F4909689A
:101D7000C81D04EB840101EB44110D4A02EB410143
:101D8000091D0C4A126831F81210C21700EB52728A
:101D9000B1EBE20F01DB2046BFE7641C282CE5DD38
:101DA0006D1C022D99DD0020B7E700002401002002
:101DB000465E0008300100202DE9F0410346002472
:101DC00034E01D783DB31E781A4FBD5D002015E04C
:101DD000194F57F822703F5C2F444FF0FF0C97FBD0
:101DE000FCF80CFB1877FEB2471CDF5DDFF84CC037
:101DF0001CF806C087EA0C071F54401C9042E7DB22
:101E0000104603E0461C9E5D1E54401C8E18761E34
:101E10008642F7DC09E0002003E0451C5D5D1D54AF
:101E2000401C8D186D1E8542F7DC641C8C42C8DB9B
:101E3000BDE8F081206B00080C000020206A00083B
:101E40000146302903DB392901DC01207047412993
:101E500003DB5A2901DC0120F8E720290FD02429CF
:101E60000DD025290BD02A2909D02B2907D02D29BF
:101E700005D02E2903D02F2901D03A2901D10120E4
:101E8000E4E70020E2E70246812A01DB9F2A03DD26
:101E9000E02A0FDBEB2A0DDC40290BDB9F2A01D166
:101EA000FC2903DCEB2A03D1BF2901DD00207047A8
:101EB0000120FCE70020FAE70146302903DB39293D
:101EC00001DC012070470020FCE700001548806914
:101ED00040F00400134988610846806940F04000E2
:101EE00088611148006820F00F000F49086008461B
:101EF000006840F0080008600C4800680C49084081
:101F00000A490860084600680A490843074908600A
:101F100006480C30006840F01C0004490C31086091
:101F20007047000000100240000801400018014006
:101F3000FF00F0FF00880800014648F2401081428F
:101F400007D349F6FC70814203D8A1F5014140391D
:101F500002E0A1F541414039C8B20A0A02EB42024F
:101F600000EB82107047000070B504460026174849
:101F70000588408845431548808846F60401884214
:101F800016D112488079012812D100200F4988719A
:101F90002A2008722B2048720021084601F07AFEA0
:101FA00001200A4988712B2008722A20487203E018
:101FB0000021084601F06EFE01F0B8FF002602E0A5
:101FC00003480480761CAE42FAD370BD580100204D
:101FD0000008006C10B50446002C3DD140498871C2
:101FE000F02008804FF4A07048800846808849F2AD
:101FF0004131884205D03A48808846F6040188423B
:1020000014D12C203649C8712A2008722B2048721E
:102010000846808846F6040188425CD14FF4A070DF
:102020002F4908804FF4F070488054E02C48808895
:1020300048F68911884207D122202949C8714E20CB
:1020400008724F20487246E022202549C87120209E
:102050000872212048723EE00120214988714FF426
:10206000A0700880F02048800846808849F24131FD
:10207000884207D12C201A49C8712A2008722B20C7
:10208000487228E01648808846F6040188420DD13F
:102090002C201349C8712B2008722A2048724FF453
:1020A000F07008804FF4A070488014E00C488088DD
:1020B00048F68911884207D122200949C8714F206A
:1020C00008724E20487206E022200549C87121207E
:1020D000087220204872002001F0F2FC10BD0000C0
:1020E0005801002030B504460D462946204601F02F
:1020F000D1FD01F01BFF024800880249088030BD75
:10210000000000200008006C2DE9FC4F05460E463B
:1021100017469846DDF82C900020019027488088CB
:1021200046F60401884229D124488079012825D126
:10213000AB46354621480088C01B401E86B2474644
:102140001E480088A0EB0B00401E1FFA80F80020FC
:102150001A4988712A2008722B20487243463A4651
:1021600031462846CDF80090FFF7CEFF01201349F5
:1021700088712B2008722A2048721CE0781B401CB2
:1021800080B20190344614E02146284601F082FDD9
:1021900001F0CCFE4FF0000A06E0484601F0BAFE1E
:1021A0000AF101001FFA80FA01988245F5DB601CF4
:1021B00084B24445E8DDBDE8FC8F000058010020F2
:1021C00010B5FE48406940F48070FC4948610846FB
:1021D000806940F0080088610846806940F020006E
:1021E00088610846806940F040008861084680693F
:1021F00040F480708861F248006820F00F00F049D8
:1022000008600846006840F003000860ED48006878
:10221000ED490840EB49086008460068EB4908436F
:10222000E8490860081F006800F0FF20091F0860E7
:102230000846006840F0BB100860E54800680020D0
:10224000E34908600846006840F0BB300860081F9A
:10225000006820F07040091F08600846006840F0E0
:1022600030400860DB48406820F47020D94948605D
:102270000846406840F4302048600846006820F076
:102280000F0008600846006840F00B00086000205E
:102290004FF020418861C861CF4908604FF020406D
:1022A000806940F480504FF0204188610846806981
:1022B00040F4804088610846806940F010008861E1
:1022C0000846C069C8610846C06940F00100C8619D
:1022D0000846C06940F47060C861BF480068C1F832
:1022E0001C01BD480068C1F81C010846D0F81C015B
:1022F00040F44070C1F81C010846806940F00100BC
:102300008861322002F0DEFB0121002001F018FE7E
:10231000322002F0D7FB002001F0C6FBAF498880D5
:1023200008468088FF280ADB084680884FF6FF7140
:10233000884204D0A9488088B0F5134F4BD1D320F0
:1023400001F0EEFD01F0AAFB01F0A8FB01F0A6FBF5
:10235000A2498880084680884FF6FF7101EA002074
:102360009E49888001F09AFB9C49898808439B49D3
:1023700088800846808849F2413188421BD0BF20BE
:1023800001F0CEFD01F08AFB01F088FB01F086FB35
:1023900001F084FB91498880084680884FF6FF71E0
:1023A00001EA00208D49888001F078FB8B498988FB
:1023B00008438A4988808948808849F241318842A7
:1023C00009D08648808846F60401884203D049F245
:1023D0004130824988808148818881A0FDF744FF8F
:1023E0007E48808849F2413188427CD1CF2001F07B
:1023F00097FD002001F08EFDC12001F08BFD302003
:1024000001F088FDED2001F08BFD642001F082FDDC
:10241000032001F07FFD122001F07CFD812001F0FE
:1024200079FDE82001F07CFD852001F073FD10208E
:1024300001F070FD7A2001F06DFDCB2001F070FD00
:10244000392001F067FD2C2001F064FD002001F02F
:1024500061FD342001F05EFD022001F05BFDF720FC
:1024600001F05EFD202001F055FDEA2001F058FD4D
:10247000002001F04FFD002001F04CFDC02001F0D4
:102480004FFD1B2001F046FDC12001F049FD012058
:1024900001F040FDC52001F043FD302001F03AFD80
:1024A000302001F037FDC72001F03AFDB72001F0E0
:1024B00031FD362001F034FD482001F02BFD3A209B
:1024C00001F02EFD552001F025FDB12001F028FD81
:1024D000002001F01FFD1A2001F01CFDB62001F0C4
:1024E0001FFD0A2000E0B4E001F014FDA22001F07D
:1024F00011FDF22001F014FD002001F00BFD26205B
:1025000001F00EFD012001F005FDE02001F008FDC5
:102510000F2001F0FFFC2A2001F0FCFC282001F034
:10252000F9FC082001F0F6FC0E2001F0F3FC082075
:1025300001F0F0FC542001F0EDFCA92001F0EAFCD0
:10254000432001F0E7FC0A2001F0E4FC0F2001F039
:10255000E1FC002001F0DEFC002001F0DBFC0020AB
:1025600001F0D8FC002001F0D5FCE12001F0D8FCFE
:10257000002001F0CFFC152001F0CCFC172001F069
:10258000C9FC072001F0C6FC112001F0C3FC0620A5
:1025900001F0C0FC2B2001F0BDFC562001F0BAFC7C
:1025A0003C2001F0B7FC052001F0B4FC102001F044
:1025B000B1FC0F2001F0AEFC3F2019E000100240FA
:1025C000000C01400414014000F0FF00BB0B00BBF5
:1025D00004180140002001401C0100A05801002007
:1025E000204C43442049443A25780D0A000000005D
:1025F00001F090FC3F2001F08DFC0F2001F08AFCDF
:102600002B2001F08DFC002001F084FC002001F063
:1026100081FC012001F07EFC3F2001F07BFC2A20A0
:1026200001F07EFC002001F075FC002001F072FC3E
:10263000002001F06FFCEF2001F06CFC112001F094
:102640006FFC782002F03EFA292001F069FC01F0CD
:1026500015BAFE48808846F6040188427ED11120D2
:1026600001F05EFC142002F02DFAD02001F058FC9D
:10267000072001F04FFC422001F04CFC1D2001F02E
:1026800049FCD12001F04CFC002001F043FC1A2051
:1026900001F040FC092001F03DFCD22001F040FC9B
:1026A000012001F037FC222001F034FCC02001F0B1
:1026B00037FC102001F02EFC3B2001F02BFC002009
:1026C00001F028FC022001F025FC112001F022FC81
:1026D000C52001F025FC032001F01CFCC82001F0FE
:1026E0001FFC002001F016FC252001F013FC212026
:1026F00001F010FC052001F00DFC002001F00AFCA7
:102700000A2001F007FC652001F004FC252001F0FF
:1027100001FC772001F0FEFB502001F0FBFB0F20B5
:1027200001F0F8FB002001F0F5FBF82001F0F8FBC8
:10273000012001F0EFFBFE2001F0F2FB002001F090
:10274000E9FB022001F0E6FB202001F0E9FB362046
:1027500001F0E6FB082001F0DDFB00E02AE03A2072
:1027600001F0DEFB552001F0D5FB2B2001F0D8FB5A
:10277000002001F0CFFB002001F0CCFB012001F094
:10278000C9FB3F2001F0C6FB2A2001F0C9FB002055
:1027900001F0C0FB002001F0BDFB012001F0BAFBFD
:1027A000DF2001F0B7FB782002F08CF9292001F03E
:1027B000B7FB4CE7A548808849F2253188427DD196
:1027C00047F6F001E52001F0BBFB4FF480710120DA
:1027D00001F0B6FB4FF4E061022001F0B1FB41F2E1
:1027E0003001032001F0ACFB0021042001F0A8FB24
:1027F00040F20221082001F0A3FB0021092001F092
:102800009FFB00210A2001F09BFB00210C2001F01E
:1028100097FB00210D2001F093FB00210F2001F018
:102820008FFB0021102001F08BFB0721112001F00C
:1028300087FB0021122001F083FB0021132001F00F
:102840007FFB0021072001F07BFB41F2906110200B
:1028500001F076FB40F22721112001F071FB9D2150
:10286000122001F06DFB4FF4C851132001F068FBFA
:102870002521292001F064FB0D212B2001F060FBB4
:102880000721302001F05CFB40F20331312001F0E0
:1028900057FB0321322001F053FB40F20621352083
:1028A00001F04EFB0821362001F04AFB40F20641C0
:1028B000372001F045FB4FF4417100E058E038202B
:1028C00001F03EFB0721392001F03AFB40F20261A2
:1028D0003C2001F035FB08213D2001F031FB0021B7
:1028E000502001F02DFBEF21512001F029FB0021A8
:1028F000522001F025FB40F23F11532001F020FB54
:102900004FF42741602001F01BFB0121612001F001
:1029100017FB00216A2001F013FB0021802001F049
:102920000FFB0021812001F00BFB0021822001F030
:1029300007FB0021832001F003FB0021842001F02C
:10294000FFFA0021852001F0FBFA1021902001F010
:10295000F7FA4FF4C061922001F0F2FA40F233111D
:10296000072001F0EDFA2221002001F0E9FA6EE6DD
:102970003648808849F22831884269D141F28F0176
:10298000EC2001F0DDFA41F23421EF2001F0D8FA19
:102990004FF48071012001F0D3FA4FF4E06102207E
:1029A00001F0CEFA41F23001032001F0C9FA002112
:1029B000042001F0C5FA40F20221082001F0C0FA1B
:1029C0000021092001F0BCFA00210A2001F0B8FA28
:1029D00001210C2001F0B4FA00210D2001F0B0FA21
:1029E00000210F2001F0ACFA0021102001F0A8FA1C
:1029F0000721112001F0A4FA0021122001F0A0FA11
:102A00000021132001F09CFA0121072001F098FA1F
:102A1000322002F057F841F29041102001F090FA74
:102A200040F22721112001F08BFA322002F04AF8FF
:102A30008A21122001F084FA322002F043F84FF488
:102A4000D051132001F07CFA062102E05801002049
:102A50008BE0292001F074FA0D212B2001F070FA8F
:102A6000322002F02FF80021202001F069FA002125
:102A7000212001F065FA322002F024F800213020F4
:102A800001F05EFA40F20461312001F059FA40F29F
:102A90000531322001F054FA0021352001F050FABE
:102AA00040F60941362001F04BFA4FF4017137200E
:102AB00001F046FA40F20131382001F041FA40F2CB
:102AC0000771392001F03CFA00213C2001F038FA6E
:102AD00040F60A213D2001F033FA322001F0F2FFE6
:102AE0000021502001F02CFAEF21512001F028FAAA
:102AF0000021522001F024FA40F23F11532001F04E
:102B00001FFA4FF42741602001F01AFA01216120D9
:102B100001F016FA00216A2001F012FA002180204B
:102B200001F00EFA0021812001F00AFA0021822032
:102B300001F006FA0021832001F002FA002184202E
:102B400001F0FEF90021852001F0FAF91021902012
:102B500001F0F6F94FF4C061922001F0F1F940F272
:102B60003311072001F0ECF971E5FE48808849F245
:102B7000203188427ED10021084601F0E1F94FF46E
:102B80008071012001F0DCF94FF4E061022001F0D6
:102B9000D7F941F23001032001F0D2F900210420DD
:102BA00001F0CEF940F20221082001F0C9F900211C
:102BB000092001F0C5F900210A2001F0C1F9012125
:102BC0000C2001F0BDF900210D2001F0B9F9002120
:102BD0000F2001F0B5F9322001F074FF40F201112D
:102BE000072001F0ADF9322001F06CFF4FF486515F
:102BF000102001F0A5F90721112001F0A1F94FF4EF
:102C00008871122001F09CF94FF43061132001F01B
:102C100097F90021292001F093F944F210012B20AB
:102C200001F08EF90021502001F08AF9EF215120A6
:102C300001F086F90021522001F082F940F23F11A3
:102C4000532001F07DF94FF41C51602001F078F918
:102C50000121612001F074F900216A2001F070F96E
:102C60000021802001F06CF90021812001F068F939
:102C7000002100E02DE0822001F062F90021832094
:102C800001F05EF90021842001F05AF9002185202D
:102C900001F056F91021902001F052F90021922004
:102CA00001F04EF90121932001F04AF94FF48871A7
:102CB000952001F045F90021972001F041F900210C
:102CC000982001F03DF940F27311072001F038F926
:102CD000BDE4A448808849F2313188427DD141F277
:102CE0001401E72001F02CF94FF48071012001F06C
:102CF00027F94FF40071022001F022F941F2380166
:102D0000032001F01DF940F20221082001F018F91A
:102D10000021092001F014F900210A2001F010F926
:102D200000210C2001F00CF900210D2001F008F920
:102D300000210F2001F004F90021102001F000F91A
:102D40000721112001F0FCF80021122001F0F8F811
:102D50000021132001F0F4F8C82001F0B3FE41F285
:102D60009061102001F0ECF840F22721112001F0D1
:102D7000E7F8322001F0A6FE0C21122001F0E0F865
:102D8000322001F09FFE4FF40061132001F0D8F8CB
:102D90001121292001F0D4F80B212B2001F0D0F8CB
:102DA000322001F08FFE0021202001F0C9F840F20E
:102DB0003F11212001F0C4F80021302001F0C0F8BB
:102DC0004FF48371312001F0BBF80021322001F073
:102DD000B7F84FF40171352000E064E001F0B0F87D
:102DE00041F20A61362001F0ABF840F2077137205A
:102DF00001F0A6F84FF48371382001F0A1F840F2F9
:102E00000771392001F09CF840F202413C2001F0AA
:102E100097F840F60F413D2001F092F80021502034
:102E200001F08EF8EF21512001F08AF800215220A4
:102E300001F086F840F23F11532001F081F84FF481
:102E40001C51602001F07CF80121612001F078F82C
:102E500000216A2001F074F80021802001F070F850
:102E60000021812001F06CF80021822001F068F837
:102E70000021832001F064F80021842001F060F833
:102E80000021852001F05CF81021902001F058F815
:102E90004FF4C061922001F053F840F23311072043
:102EA00001F04EF885E42F48808845F208418842B9
:102EB0007DD14FF48071012001F042F84FF4E061C0
:102EC000022001F03DF841F23001032001F038F812
:102ED0000021042001F034F840F20721082001F01D
:102EE0002FF80021092001F02BF800210A2001F021
:102EF00027F800210C2001F023F800210D2001F01B
:102F00001FF800210F2001F01BF8142001F0DAFD5A
:102F100041F2B061102001F013F80121112001F0FD
:102F20000FF80121172001F00BF84FF49C711220CB
:102F300001F006F84FF40061132001F001F80921B7
:102F4000292000F0FDFF09212A2000F0F9FF0021CF
:102F5000A42000F0F5FF0021502000F0F1FFEF2148
:102F6000512001E05801002000F0EAFF002152202A
:102F700000F0E6FF40F23F11532000F0E1FF4FF474
:102F80001C51602000F0DCFF0121612000F0D8FF1F
:102F900000216A2000F0D4FF0021802000F0D0FF43
:102FA0000021812000F0CCFF0021822000E027E0FA
:102FB00000F0C6FF0021832000F0C2FF0021842022
:102FC00000F0BEFF0021852000F0BAFF1321902001
:102FD00000F0B6FF0021922000F0B2FF0321932001
:102FE00000F0AEFF4FF48871952000F0A9FF40F289
:102FF0007311072000F0A4FF322001F063FDB6E456
:10300000FE48808841F2055188427DD10021072089
:1030100000F096FF322001F055FD4FF48E71122022
:1030200000F08EFF0121A42000F08AFF0F2108206C
:1030300000F086FF08210A2000F082FF08210D2001
:1030400000F07EFF40F20771302000F079FF072189
:10305000312000F075FF40F20361322000F070FF74
:103060004FF4E061332000F06BFF40F20221342086
:1030700000F066FF0221352000F062FF41F60F717B
:10308000362000F05DFF40F20771372000F058FF56
:103090000021382000F054FF0021392000F050FFBB
:1030A00040F207713A2000F04BFF00213B2000F076
:1030B00047FF07213C2000F043FF00213D2000F0A6
:1030C0003FFF322001F0FEFC0121072000F038FF15
:1030D0000121172000F034FF322001F0F3FC4FF4FF
:1030E000BD51102000F02CFF40F21721112000F0FC
:1030F00027FF4FF48F71122000F022FF4FF4706110
:10310000132000F01DFF00E095E000212A2000F0D0
:1031100017FF0A21292000F013FF4FF49F7112209E
:1031200000F00EFF0021502000F00AFFEF21512097
:1031300000F006FF0021522000F002FF40F23F1194
:10314000532000F0FDFE4FF41C51602000F0F8FE0B
:103150000121612000F0F4FE00216A2000F0F0FE61
:103160000021802000F0ECFE0021812000F0E8FE2C
:103170000021822000F0E4FE0021832000F0E0FE28
:103180000021842000F0DCFE0021852000F0D8FE24
:103190001321902000F0D4FE4FF44071922000F0F3
:1031A000CFFE0521932000F0CBFE0021952000F0FA
:1031B000C7FE0021972000F0C3FE0021982000F0F8
:1031C000BFFE4FF48071012000F0BAFE4FF4E061C1
:1031D000022000F0B5FE41F23801032000F0B0FEFD
:1031E0000021042000F0ACFE00210C2000F0A8FE1D
:1031F00000210F2000F0A4FE0021202000F0A0FEFE
:103200000021212000F09CFE2121072000F098FEE3
:10321000142001F057FC6121072000F091FE1420DA
:1032200001F050FC40F27311072000F089FE1420D9
:1032300001F048FC98E4714880884BF205518842BF
:103240007ED10021084600F07BFE0021084600F0F8
:1032500077FE0021084600F073FE0021084600F0CA
:103260006FFE0121A42000F06BFE142001F02AFC67
:103270004FF41C51602000F063FE40F20221082050
:1032800000F05EFE4FF40571302000F059FE43F26D
:103290001571312000F054FE40F20461322000F03C
:1032A0004FFE40F61661332000F04AFE42F2112133
:1032B000342000F045FE4FF4A851352000F040FEC8
:1032C00048F20751362000F03BFE41F2074137201B
:1032D00000F036FE41F20341382000F031FE20219B
:1032E000392000F02DFE1A21902000F029FE002147
:1032F000102000F025FE0721112000F021FE002102
:10330000122000F01DFE0021132000F019FE1420F1
:1033100001F0D8FB4FF4E661102000F011FE40F2FE
:103320003711112000F00CFE142001F0CBFB4FF4FC
:10333000DC71122000F004FE142001F0C3FB00E059
:1033400087E04FF47061132000F0FAFD80212A20FD
:1033500000F0F6FD4821292000F0F2FD142001F0D4
:10336000B1FB4FF48071012000F0EAFD4FF4E06101
:10337000022000F0E5FD41F23801032000F0E0FDFD
:1033800040F20221082000F0DBFD00210A2000F0BD
:10339000D7FD00210C2000F0D3FD00210D2000F00E
:1033A000CFFD30210E2000F0CBFD0021502000F099
:1033B000C7FDEF21512000F0C3FD0021522000F095
:1033C000BFFD40F23F11532000F0BAFD4FF41C51F5
:1033D000602000F0B5FD0121612000F0B1FD002169
:1033E0006A2000F0ADFD1121902000F0A9FD4FF4FE
:1033F000C061922000F0A4FD02E00000580100200E
:1034000040F20241932000F09BFD0221942000F045
:1034100097FD142001F056FB0121072000F090FDDC
:10342000142001F04FFB6121072000F089FD40F2DC
:103430007311072000F084FD0021202000F080FDA2
:103440000021212000F07CFD2221002000F078FDE9
:1034500014E3FE4880884CF2055188427ED1002159
:10346000084600F06DFD0021084600F069FD1420BB
:1034700001F028FB0021084600F062FD002108460B
:1034800000F05EFD0021084600F05AFD00210846CC
:1034900000F056FD0121A42000F052FD142001F09F
:1034A00011FB4FF41C51602000F04AFD40F606016C
:1034B000082000F045FD40F20371302000F040FD8F
:1034C0000121312000F03CFD0421322000F038FDC4
:1034D0004FF48171332000F033FD4FF440713420FC
:1034E00000F02EFD40F20311352000F029FD1F21D0
:1034F000362000F025FD40F20371372000F020FD5A
:103500000121382000F01CFD0421392000F018FDB5
:103510001521902000F014FD4FF48261102000F07E
:103520000FFD40F24721112000F00AFD4FF4DE713B
:10353000122000F005FD4FF46061132000F000FD43
:10354000782001F0BFFA4FF48071012000F0F8FC00
:103550004FF40071022000F0F3FC00E050E041F273
:103560003001032000F0ECFC08210A2000F0E8FC08
:1035700000210C2000F0E4FC20210E2000F0E0FCF3
:1035800000210F2000F0DCFC0021202000F0D8FCFE
:103590000021212000F0D4FC3D212A2000F0D0FCA5
:1035A000142001F08FFA2D21292000F0C9FC002100
:1035B000502000F0C5FC4DF2EF01512000F0C0FC9E
:1035C0000021522000F0BCFC40F23F11532000F0DB
:1035D000B7FC0021612000F0B3FC00216A2000F05C
:1035E000AFFC4FF44071922000F0AAFC052193201B
:1035F00000F0A6FC4FF48071072000F0A1FC3DE232
:103600009248808848F6891188427DD101210020A6
:1036100000F096FC4AF6A401032000F091FC002182
:103620000C2000F08DFC40F60C010D2000F088FC11
:103630004FF42C510E2000F083FCB0211E2000F02E
:103640007FFC42F63F31012000F07AFC4FF4C0616C
:10365000022000F075FC0021102000F071FC46F201
:103660007801112000F06CFC0021052000F068FCBE
:103670000021062000F064FC4EF61C71162000F0BC
:103680005FFC0321172000F05BFC40F23321072090
:1036900000F056FC00210B2000F052FC00210F200E
:1036A00000F04EFC0021412000F04AFC00214220A5
:1036B00000F046FC0021482000F042FC40F23F119F
:1036C000492000F03DFC00214A2000F039FC002197
:1036D0004B2000F035FC4FF46F41442000F030FCEB
:1036E0000021452000F02CFC40F23F11462000F064
:1036F00027FC40F20771302000F022FC4FF40171EA
:10370000312000F01DFC00E03DE04FF4017132205B
:1037100000F016FC40F20251332000F011FC40F2A0
:103720000751342000F00CFC4FF40171352000F0FB
:1037300007FC4FF40171362000F002FC40F2025108
:10374000372000F0FDFB40F202313A2000F0F8FB98
:1037500040F202313B2000F0F3FB0021232000F077
:10376000EFFB0021242000F0EBFB4FF4004125206B
:1037700000F0E6FB00214F2000F0E2FB00214E208C
:1037800000F0DEFB7AE13148808844F23151884212
:103790007DD10121002000F0D3FB0A2001F092F935
:1037A00041F22861102000F0CBFB0E21122000F026
:1037B000C7FB40F63921132000F0C2FB0A2001F0BC
:1037C00081F94021112000F0BBFB5021152000F0B1
:1037D000B7FB0A2001F076F91E21122000F0B0FBA1
:1037E0000A2001F06FF94FF4B151102000F0A8FB4E
:1037F00042F63921132000F0A3FB0A2001F062F900
:103800004FF48071012000F09BFB4FF440710220C7
:1038100000F096FB41F23801032000F091FB40F2EA
:103820000221082000F08CFB08210A2000F088FB10
:103830000021302000F084FB40F20241312000F0F2
:103840007FFB4FF48371322002E00000580100201A
:1038500000F076FB40F20351332000F071FB4FF48F
:103860008271342000F06CFB40F20131352000F011
:1038700067FB40F20771362000F062FB40F2053131
:10388000372000F05DFB4FF40271382000E040E08B
:1038900000F056FB40F60B71392000F051FB02217D
:1038A000412000F04DFB4FF41C51602000F048FB1C
:1038B0000121612000F044FB4FF40471902000F0DE
:1038C0003FFB4FF48571922000F03AFB04219320D6
:1038D00000F036FB4FF48071A02000F031FB012195
:1038E000072000F02DFB2121072000F029FB2321D8
:1038F000072000F025FB3321072000F021FB40F2D8
:103900003311072000F01CFB0021A02000F018FB61
:10391000B4E06048808844F235518842F8D13021C3
:10392000152000F00DFB10219A2000F009FB20214A
:10393000112000F005FB43F22841102000F000FBAD
:103940000221122000F0FCFA41F23801132000F0AD
:10395000F7FA282001F0B6F81221084600F0F0FA34
:10396000282001F0AFF843F22041102000F0E8FADF
:1039700043F23801132000F0E3FA462001F0A2F8E8
:103980000021302000F0DCFA40F20241312000F04A
:10399000D7FA40F20731322000F0D2FA4FF44171E9
:1039A000332000F0CDFA0421342000F0C9FA40F2AF
:1039B0000141352000F0C4FA40F20771362000F0D2
:1039C000BFFA40F20531372000F0BAFA4FF4C26175
:1039D000382000F0B5FA4FF4C261392000F0B0FA97
:1039E0004FF48071012000F0ABFA4FF440710220D7
:1039F00000F0A6FA41F23001032000F0A1FA40F6EF
:103A00000801082000F09CFA08210A2000F098FA2A
:103A10004FF41C51602000F093FA0121612000F066
:103A20008FFA4FF49F71902000F08AFA4FF4807162
:103A3000922000F085FA4FF48071932000F080FA14
:103A40004FF44051A02000F07BFA1021A32000F099
:103A500077FA0121072000F073FA2121072000F0F6
:103A60006FFA2321072000F06BFA3321072000F0C2
:103A700067FA40F23311072000F062FA0020FEF7E7
:103A8000A9FA0120044908604FF6FF70FEF76CFAAE
:103A900010BD0000580100208081214201480088AB
:103AA000704700000008006C10B50446204600F086
:103AB00037FA052001F024F8FFF7F0FF10BD0000F1
:103AC00070B50446002300267148807901281ED174
:103AD0006F48808846F60401884218D0082C15D219
:103AE000DFE804F00406080A0C0E101206240DE0AC
:103AF00007240BE0042409E0052407E0012405E085
:103B0000002403E0032401E0022400BF00BF60485A
:103B1000808849F24131884205D05D48808846F668
:103B2000040188427DD1082C1CD2DFE804F0040691
:103B3000090C0F12151800BF14E043F0800311E0C8
:103B400043F040030EE043F0C0030BE043F02003DA
:103B500008E043F0600305E043F0A00302E043F017
:103B6000E00300BF00BF362643F0080348488088C2
:103B700046F60401884201D143F00203194630465B
:103B800000F0DEF903F0200018B9414880790128DF
:103B90000DD13F4800883E494988884214DA3C48A4
:103BA000058840883A490880084645800CE0384836
:103BB000008837494988884206DD354805884088AD
:103BC00033490880084645803149087A00F0A8F951
:103BD000002000F09FF9002000F09CF92C49098892
:103BE000491EC1F30F2000F095F929490978491EB3
:103BF000C8B200F08FF92649487A00F091F9002008
:103C000000F088F9002000F085F921494988491E13
:103C1000C1F30F2000F07EF91D498978491EC8B212
:103C200000E002E000F076F931E0082C1CD2DFE879
:103C300004F004070A0D0F12151843F0300313E0C7
:103C400043F0100310E043F020030DE000BF0BE051
:103C500043F0380308E043F0280305E043F018037D
:103C600002E043F0080300BF00BF0948808848F61F
:103C70008911884204D1112646F24000034302E034
:103C8000032643F480531946304600F059F970BDBD
:103C90005801002010B503460C462948808849F297
:103CA0004131884214D12649087A00F039F91812B6
:103CB00000F030F9D8B200F02DF92149487A00F02F
:103CC0002FF9201200F026F9E0B200F023F936E0D7
:103CD0001B48808846F6040188421DD11848807927
:103CE000012804D116480088401EC01A83B2144926
:103CF000087A00F015F9181200F00CF9D8B200F0AB
:103D000009F90F49487A00F00BF9201200F002F986
:103D1000E0B200F0FFF812E009488079012804D1F0
:103D200007480088401EC01A83B20549087A194620
:103D300000F006F90249487A214600F001F910BD69
:103D4000580100202DE9F84F05460F4690461E46C3
:103D500000975148B0F80090A8F1200000F0FF084B
:103D60000A9800284ED1002449E00C2E07D108EB18
:103D700048004A4901EB800010F804A004E04848DC
:103D800000EB081010F804A04FF0000B31E00AF02F
:103D9000800018B14048A0F8009003E04148008836
:103DA0003D49088039462846FEF79CF94FEA4A60AB
:103DB0004FEA106A781C87B23B480088A84204DCAE
:103DC0003548A0F80090BDE8F88F0098381AB04246
:103DD0000BD1009F681C85B233480088A84203DCE1
:103DE0002D48A0F80090EEE706E00BF1010000F08E
:103DF000FF0BBBF1080FCADB00BF601CC4B2B442AA
:103E0000B3DB44E0002440E00C2E07D108EB48006F
:103E1000224901EB800010F804A004E0204800EBE8
:103E2000081010F804A04FF0000B28E00AF0800002
:103E300018B139462846FEF755F94FEA4A604FEA6D
:103E4000106A781C87B218484088A84203DC1248E0
:103E5000A0F80090B7E70098381AB0420BD1009F45
:103E6000681C85B210480088A84203DC0A48A0F804
:103E70000090A8E706E00BF1010000F0FF0BBBF19A
:103E8000080FD3DB00BF601CC4B2B442BCDB0248E5
:103E9000A0F8009000BF96E700000020E153000862
:103EA0005558000802000020580100202DE9F8476D
:103EB00004460D4690469946DDE9096704F0FF0A7D
:103EC00008EB04001FFA80F809EB05001FFA80F9DF
:103ED00016E0444502DB5446A81985B24D4500DB87
:103EE00014E0002000903A78334629462046FFF738
:103EF00029FF304606EBD07104EB61018CB27F1CC8
:103F000038787E2802DC38782028E2DA00BFBDE865
:103F1000F887000001490880704700000008006C25
:103F20000149088070470000FE07006C0248C07914
:103F3000024908807047000058010020FE07006C0D
:103F4000024A1080921C118070470000FE07006C2E
:103F50001848806940F00800164988610846806961
:103F600040F0400088611448006820F47000124955
:103F700008600846006840F4401008600E480C30A5
:103F8000006840F020000C490C3108600B480068C4
:103F900020F47000094908600846006840F44010A9
:103FA000086006480C30006840F0200003490C31DE
:103FB0000860704700100240000C014000180140EA
:103FC00000B5002015490861C86014204861002030
:103FD0008861C8610846006840F001000860084632
:103FE00040680F4908400D494860084600680D497F
:103FF00008400A4908600846006820F480200860EC
:104000000846406820F4FE004860002088600021D7
:104010004FF0006000F068F800BD000000100240A2
:104020000000FFF8FFFFF6FE2DE9F04780468946C5
:1040300014461D462046E11704EB9171C1F3870A2F
:10404000E11704EB91718910A4EB8101CFB2042038
:1040500000EBC700C7B2284600F032F8C5F10400F3
:1040600008FA00F60F20284100EA0900064306F08E
:104070000F06202C09DA104801680120A0400143F6
:104080004FF0E020C0F800110BE00B48001D006865
:10409000A4F1200101228A4010434FF0E021C1F831
:1040A0000401064850F82A0006FA07F108430349BC
:1040B00041F82A00BDE8F08700E100E000E400E0FC
:1040C0000146072323EA01021202054B18684FF646
:1040D000FF031840034B18431043014B186070470F
:1040E0000CED00E00000FA05024A0A400243024BD0
:1040F0001A60704780FFFF1F08ED00E070B50246B0
:10410000B1245443134D2C44645C04F0200404B1E6
:1041100070BD921E891E002017E0002312E00E4C95
:10412000245CC3F104060125B5402C400CB13025B8
:1041300000E02025D418B1267443064E34440E18EE
:10414000A5555B1C052BEADB401C0528E5DB00BF01
:10415000DEE700006201002047010020F0B50346C1
:104160000D46581C20B1981845F66044A04202DD67
:104170004FF0FF30F0BD002124E0501A401E012412
:1041800004FA00F02840E0B15818C61700EB567644
:10419000F6100E4FBE5D5C18E71704EB5777FF1063
:1041A000A4EBC707C7F1070C012707FA0CF73E433A
:1041B0005818C71700EB5777FF10DFF810C00CF83E
:1041C0000760491C9142D8DB9818D3E7C37B0020D5
:1041D000F0B5234E30683668711E01220125002398
:1041E00039E0002434E000BF10445242002A13DAC0
:1041F0002944002903DB1A4E3668B1420CD100294C
:1042000001DA002602E0164E3668761E31466D420F
:10421000801E062800D1401EB1264643114F3E4461
:10422000765C06F02006002EDED10F4EF65CC4F15F
:10423000070C012707FA0CF73E400EB1022700E0F9
:104240000027B1264643DFF81CC066447754641C3F
:10425000082CC8DB5B1C054E3668B342C1DBF0BDE1
:104260002001002062010020679E00202C01002018
:1042700070B502460B46002017E0002112E00C4CFE
:10428000245CC1F106060125B5402C400CB1302557
:1042900000E020255418B1267443064E34441E18FD
:1042A000A555491C0729EADB401C0728E5DB70BD42
:1042B000400100206201002070B50346494C24688B
:1042C00034B1012C02D0022C06D103E0002205E01B
:1042D000082203E0182201E0102200BF00BF1A44A8
:1042E000910200200CE0C0F10E050124AC400C400E
:1042F0002CB1C0F1040540F23754AC406140401C81
:104300000528F0DB01EB822145F2124461400020D8
:1043100009E0012484400C400CB1302500E0202548
:10432000314C2554401C0528F3DD01F040040CB14C
:10433000302500E020252D4C84F88F5501F08004B5
:104340000CB1302500E02025284C84F8905501F46C
:1043500080740CB1302500E02025244C84F8DF5413
:1043600009200EE0012484400C400CB1302500E00F
:104370002025C0F10E04B12674431C4E344425722E
:10438000401C0E28EEDD002010E0012484400C408B
:104390000CB1302500E02025154C2468641E241A39
:1043A000B1267443114E34442572401C0728ECDDBD
:1043B00030260F4C2468083C0B4D2E5508200DE08C
:1043C000012484400C400CB1302500E02025084C2D
:1043D00024680F3C2618044CA555401C0E28EFDD20
:1043E00070BD000030010020EA06002062010020BC
:1043F0002001002030B500210846FFF739FF6C4945
:104400000968C81F0021FFF733FF69480068C11F12
:104410000020FFF72DFF002427E0202165480155EB
:10442000B1206043644A1044C17161480068083893
:104430002044B1225043604A1044C1715C48006876
:104440000838B12250435C4A10440155584800686E
:104450000838021957488154B1206043564A024433
:104460005348006808381154641C082CD5DB00241C
:1044700009E020214F48B1300155B12060434E4A38
:1044800010440172641C092CF3DB002411E020218C
:1044900047480068083802194648B13081544448FA
:1044A000006808382044B1225043434A1044017246
:1044B000641C082CEBDB00F055F9002447E03F4971
:1044C000096801EB810202EB41113D4A02EB410117
:1044D0000E3131F814000621FFF710FE374800684E
:1044E00000EB800202EB4010354A02EB40000E3038
:1044F00030F814100620FFF701FE00251AE02F4ABD
:10450000126802EB820303EB42122D4B03EB4202D3
:104510000E3232F81510294A126802EB820303EBBF
:104520004212274B03EB42020E3232F81400FFF71F
:10453000E5FD6D1C2148006800EB800101EB401097
:104540001F4901EB40008089A842D8DC641C1B484D
:10455000006800EB800101EB4010194901EB4000BD
:104560008089A042ABDC08241CE0204604EBD0711B
:104570004910A4EB410109B9302200E02022B12109
:1045800061430D4B19448A71204604EBD0714910E8
:10459000A4EB410109B9302200E020220549B139DC
:1045A0000A55641C024800680938A042DDDA30BDB3
:1045B0002001002039060020620100203401002083
:1045C000465E0008F0B502460020C0E00021B8E0D9
:1045D000B1234B43614C23441B5C03F02003002BAD
:1045E00075D1072A78D2DFE802F004101C27334681
:1045F0005B00431803EBD3746410A3EB44040CB9C1
:10460000012400E0002425467FE0034600EBD3743C
:104610006410A0EB44040CB9012400E000242546FA
:1046200073E0032391FBF3F403FB14130BB9012391
:1046300000E000231D4668E04318032493FBF4F6D2
:1046400004FB16330BB9012300E000231D465CE098
:10465000032691FBF6F6044600EBD47706EB6703DE
:1046600003EBD3767610A3EB46060EB9012600E0E5
:104670000026354649E000FB01F4032694FBF6F7DB
:1046800006FB174600FB01F303EBD3746410A3EBA6
:10469000440434440CB9012400E00024254634E0ED
:1046A00000FB01F6032796FBF7FC07FB1C6700FBEA
:1046B00001F404EBD4767610A4EB4606BB1903EBA9
:1046C000D3767610A3EB46061EB9012602E037E04A
:1046D00002E00026354618E000FB01F6032796FBB2
:1046E000F7FC07FB1C66441804EBD4777F10A4EB9F
:1046F0004707F31903EBD3767610A3EB46060EB902
:10470000012600E00026354600BF00BFB1234B4321
:10471000124C23441B5C03F0FE03B1244C430F4EA8
:104720003444245C04F00204012C01DD012400E087
:1047300000246C402343B1244C43084E344423549A
:10474000491C074B1B689942FFF642AF401C044BC3
:104750001B689842FFF63AAFF0BD000062010020EE
:104760002001002030B5224B1B68062B00DC30BD39
:104770001F4B1B681A0300200CE0C0F11104012339
:10478000A34013402BB1C0F1050441F62573A340AB
:104790005A40401C0628F0DB154B1B6802EB033225
:1047A000002021E000211CE000EB40035C18012305
:1047B000A34013400BB1302400E02024B123434335
:1047C0000C4D1D440C4B1B680B3B0B44EC540A4B2B
:1047D0001B680B3B0B44B1256B43064D2B441C540B
:1047E000491C0329E0DB401C0628DBDB00BFBEE7D9
:1047F00034010020620100202001002030B5044671
:104800000025FFF7DDFB1F48006840F480301D499C
:10481000086000BF1B480068400C0028FAD04FF425
:10482000806018494860A01EC4B20846406840EA4B
:10483000844048600846406840F480304860124830
:10484000006840F03200104908600E48006840F0EF
:1048500080700C49086000BF0A480068400E0028BC
:10486000FAD00848406840F002000649486005E078
:1048700004484068C0F3870505F00305022DF7D111
:1048800030BD0000001002400020024009480088AE
:1048900000F0010038B10848006808B9012000E0C4
:1048A0000020054908600348008820F00100014904
:1048B0000880704710040040940123422D49088865
:1048C0002D49097801F0800100294ED100F0010145
:1048D000D1B12949097801F04001A9B126490978E7
:1048E00001F03F013F290AD12349097841F08001B5
:1048F000214A11704FF6FF71204A118004E01E49D1
:104900000978491C1C4A117000F0020169B31A4968
:10491000097801F0400199B11749097841F0800107
:10492000154A1170134924310988144A118011491C
:104930001031098821F002010E4A1032118014E072
:1049400000210D4A11700D4A11800B49097841F080
:104950004001094A11700021064A14321180111FCA
:10496000098841F00201121F11800021014A1180C3
:1049700070470000100C00400400002006000020DA
:104980001D49098801F0200111B31B49091D09883F
:10499000C8B21A49098801F40041C9B91749098800
:1049A00001F4804161B10A2803D00021134A11802B
:1049B00020E01249098841F40041104A118019E0B1
:1049C0000D2806D10D49098841F480410B4A118018
:1049D00010E00A490988C1F30D01094A50540749FA
:1049E0000988491C054A118011460988C72901DD3B
:1049F0000021118070470000003801405401002060
:104A00007AAD00200549088000BF0449091F0988C4
:104A100001F040010029F8D070470000043801403F
:104A200010B503460C46002204E0985CFFF7EAFF4D
:104A3000501C82B2A242F8DB10BD000000B508484D
:104A4000007800F013F80020064908600648006866
:104A500008B9012000E000200349086000BD000003
:104A600008000020082C00409401234200F07F0140
:104A7000014A116070470000002C0040014600BF51
:104A8000704700004FF0E021096921F004014FF068
:104A9000E0221161C21700EB5272C2F3C702074B4A
:104AA0001A701946097801EB4102C2EBC1114FF6A9
:104AB000FF7202EAC101024A118070474C010020D6
:104AC0004E01002001460D4A12884A434FF0E02370
:104AD0005A6100229A6101221A6100BF4FF0E02260
:104AE000106900F001021AB100F48032002AF5D0FA
:104AF00000224FF0E0231A619A6170474E010020B6
:104B000001460D4A12784A434FF0E0235A610022D1
:104B10009A6101221A6100BF4FF0E022106900F093
:104B200001021AB100F48032002AF5D000224FF0C1
:104B3000E0231A619A6170474C01002000BF094AC6
:104B4000128802F04002002AF9D0C2B2054B1B1DA8
:104B50001A8000BF034A128802F04002002AF9D0EE
:104B600070470000003801401CB50920FFF746FEE1
:104B70004FF47A31482000F099F84820FFF782FF7F
:104B8000FFF7E6F9FBF782FEFDF7A0F9FDF718FB4A
:104B90004FF6FF70FDF7E8F94FF478402949088097
:104BA00029A010210B46C822CDE9001000210A20BF
:104BB000FFF77CF929A010210B46C822CDE900108F
:104BC00014210A20FFF772F92848FCF71DF9C821C3
:104BD0002748FBF7ABFC33E02648008800F4004090
:104BE000E8B124480088C0F30D0400202149088062
:104BF000214621A0FBF738FB214625A0FBF734FB1B
:104C000021461B48FFF70CFF26A0FBF72DFB184899
:104C1000FCF7FAF8C8211648FBF788FC10E0681C7E
:104C200080B20546642808DB00251F48006808B9E3
:104C3000012000E000201C4908600A20FFF742FF25
:104C4000CAE70000000000205761725368697020B5
:104C500053544D3332205E5F5E00000051525F4579
:104C60004E434F444520544553540000D65200084B
:104C70007AAD002054010020BDD3CAD5B5BDB5C45E
:104C8000CAFDBEDDB3A4B6C8CEAA3A25640D0A009B
:104C9000BDD3CAD5B5BDB5C4CAFDBEDDCEAA3A25C1
:104CA000640D0A000D0A0000948121422DE9F05F95
:104CB00005460E46300100F0AFF98146304905FB4C
:104CC00001F000F0A9F98246494600F0C3F8074612
:104CD000384600F081F984B2204600F09DF9834601
:104CE000394600F079FA82464FF0834100F0A8F986
:104CF000814600F071F980464FF6FF7000EA041417
:104D000004EB080084B21F48806940F004001D498C
:104D100088610846806940F4804088611A480068CC
:104D200020F47F60184908600846006840F40B6072
:104D300008601448C06840F480401249C8600846C2
:104D4000C06820F48040C86010480480001D0088BE
:104D500042F20C0108430D49091D088008460088ED
:104D600040F4807008800846008840F020000880E9
:104D70000223252203210846FFF756F9BDE8F09FDC
:104D800040420F0000100240040801400838014072
:104D900090EA010F48BF81F0004100F12E82421AD3
:104DA0003CBF801A89184FEAD0524FF07F4C1CEA62
:104DB000410FA2EBD15318BF9CEA026F00F03B8079
:104DC0004FF0004C4CEA00204CEA012121FA03FC90
:104DD00010EB0C0C1ED202F1FF325FEA1C2040EBFC
:104DE000C25038BF70471CF07F0F4FEA400C18BF0D
:104DF000BCF17F4F38BF7047C3F12003994008BF13
:104E000020F00100BCF17F4F38BF7047A0F1C040D7
:104E100000F0DDB94FEA3C00000A40EBC25028BF69
:104E20001CF0FF0F4FEA400CE6D018BFBCF17F4FDB
:104E300038BF7047EAE79CEA026F05D010EA5C0FC2
:104E400008BF00F00040704710B500F07AF900BFCD
:104E500064FBBE3E4FF47F0C1CEAD0121EBF1CEA5E
:104E6000D11392EA0C0F93EA0C0F00F0858090EAC0
:104E7000010F48BF42F4807240F4000C41F400007E
:104E80002CF07F4120F07F4000B58142A2EB03026D
:104E90000FF2081CACEB504EC0F100009EF800E091
:104EA0004FEA4E0E00FB0EFC38BF49004FEA2C1CA7
:104EB00002F5FA020CFB0EF34FEACE1E4FEA112C5C
:104EC0004FEAC1210EEB635E42EB22420EFB0CFC6B
:104ED0004FEA1C5300FB03114FEA112C4FEA01313A
:104EE0000EFB0CFC4FEADC4C00FB0C11C14228BF4E
:104EF00009184CEB03335DF804EB10EB410143EB75
:104F0000C250B2F57C0F38BF704729D512F0F00FB0
:104F10001CBF00F1C04000F0004070470081828358
:104F20008485868788898B8C8D8E8F9192939596B8
:104F300097999A9C9D9FA0A2A3A5A7A8AAACAEB042
:104F4000B2B3B5B7B9BCBEC0C2C5C7C9CCCED1D447
:104F5000D7D9DCDFE2E6E9ECF0F3F7FAFE00000077
:104F60004FEA400C0CF1807CBCF17E4F28BF7047AB
:104F7000B0F1C04000F02BB990EA010F0CEAD11358
:104F800048BF42F48072624538BF634507D213F4CC
:104F90007F0F16D080EA010000F00040704710B586
:104FA00000F0CFF8097EFC3E00F005B880EA010071
:104FB00000F00040704780EA010000F0004000F07F
:104FC00006B912F47F0F04BF0248704780EA01005F
:104FD00000F0FDB80000C07FC10DD1F19E0206DBDC
:104FE0004FEA002343F0004323FA02F070470042E7
:104FF00007D54FEA4001B1F1FE4F02D24FF0000059
:10500000704710B500F09DF8499224800020704749
:105010006FEA200070470000B0FA80F310FA03F244
:10502000C3F19D030AD0D90501EB1220530638BF06
:10503000704700F1010008BF20F001007047000038
:105040004FF47F0C1CEAD0121EBF1CEAD11392EA67
:105050000C0F93EA0C0F00F0478090EA010F48BF55
:1050600042F480724FF0004C4CEA00204CEA0121DF
:1050700002EB0302A0FB0113A2F50002002918BFF6
:1050800043F001035B0028BF4FEA330342EB2242A7
:105090005FEA132C4CEBC2502EBFBCEB436FB2F552
:1050A0007C0F70474FEA036CBCF1004F08BF20F043
:1050B0000100B2F57C0F38BF70470BD582F0FF02BC
:1050C00012F5803FC8BF704700F1C040D8BF00F064
:1050D0000040704700F5000C5FEA4C0C48BF704779
:1050E000B0F1C04000F073B890EA010F0CEAD113A0
:1050F00048BF42F48072624538BF634504D280EAFB
:10510000010000F00040704710B500F01AF800BF31
:105110008900013E00F007B800F009B85FEA410CD1
:105120005FEA1C6C08D080EA010000F050B85FEA2A
:10513000400C5FEA1C6CF6D14FF00040A0F58000F7
:1051400070470EF1020E2EF0030E5EF8044B24425F
:1051500004D44FEA4102B2F17F4F11D84FEA400325
:10516000B3F17F4F0CD80ED14FEAD07CB2F17F4F14
:105170000CEB4C0C0CF1020C08BF4CEBD17C04E0A6
:105180004FF0080C01E04FEAD17C0CEB4C0324FA01
:1051900003F404F00704B4F1040C06D20EEB840C03
:1051A000BDE810404CF0010C6047DFE80CF0070848
:1051B00002024FF00040A0F5800010BD08464200FA
:1051C00018BFD2F1807288BF00F0004010BDFF21EF
:1051D00041EAD050C005704780F0004090EA010FCE
:1051E0007FF5DDAD81F0004100F007B890EA010FD6
:1051F00048BF81F000413FF5D2AD421A04D882F099
:105200000042A0EB020011444FEAD0524FF07F4C15
:105210001CEA410FA2EBD15318BF9CEA026F4AD09F
:105220004FF0004C4CEA00204CEA012121FA03FC2B
:10523000B0EB0C0C0FD412F0FE0F36D05FEA4C002E
:105240001DD5001240EBC25038BF70471CF03F0F15
:1052500018BF70470BE0A2F101025FEA1C2040EB8F
:10526000C25038BF70471CF07F0F18BF7047C3F1A2
:105270002003994014BF401E20F0010070478008B1
:105280004FEA122308BF7047B0FA80FCA2EB0C0271
:10529000CCF1280C60FA0CF093EA122F04BF00EB5B
:1052A000C25070474FEAC3707047130A5FEADC10C0
:1052B00008BF7047F6E79CEA026F04D010EA5C0F63
:1052C00008BF0020704710B5FFF73BFF40DFF63EF8
:1052D00081F000407047424547494E3A564341529B
:1052E000440D0A56455253494F4E3A332E300D0A5B
:1052F0004E3ACDE2D0C7C8CB0D0A54454C3A3133B3
:105300003838383838383838380D0A54454C3B541A
:105310005950453D574F524B2C564F4943453A3013
:105320003537312D38383838383838380D0A544543
:105330004C3B545950453D484F4D452C564F4943E1
:10534000453A303537312D36363636363636360D27
:105350000A4E4F54453A51513A31323334350D0AE1
:10536000454D41494C3A31323334354071712E63E9
:105370006F6D0D0A4F52473AB9ABCBBEC3FBB3C6F4
:105380000D0A5449544C453AD6B0CEBBC3FBB3C604
:105390000D0A55524C3A687474703A2F2FB8F6C8FB
:1053A000CBD6F7D2B30D0A4144523B545950453D38
:1053B000574F524B3AB9A4D7F7B5D8D6B70D0A41D3
:1053C00044523B545950453D484F4D453ABCD2CDCF
:1053D000A5D7A1D6B70D0A454E443A56434152448B
:1053E00000000000000000000000000000000000BD
:1053F000003F40000000000000000030004000308E
:10540000004000000009000BC03D000BC03D00093A
:105410000018C024407FE0224031800000180024A2
:10542000C01B000D803240018003801C4027401CBF
:1054300080074000401000600000000000000000F5
:10544000000000000000001F8020404020000040BD
:105450002020401F8000000000090006001F800679
:105460000009000000040004003F80040004000064
:1054700000001000600000000000000000040004B4
:1054800000040004000400000000000040000000D0
:105490000000000000002001C006003800400000AD
:1054A000001F802040204020401F8000000000108E
:1054B000403FC000400000000018C02140224024AE
:1054C000401840000010802040244024401B8000F1
:1054D0000002000D0011003FC0014000003C80248C
:1054E0004024402440238000001F80244024403476
:1054F00040038000003000200027C038002000005A
:10550000001B802440244024401B8000001C0022FB
:10551000C0224022401F8000000000000008400020
:105520000000000000000000000460000000000017
:1055300000000004000A001100208040400900091A
:10554000000900090009000000000040402080110F
:10555000000A000400180020002340240018000066
:10556000001F802040274029401F400000004007C6
:10557000C039000F0001C0004020403FC02440243B
:10558000401B8000001F80204020402040308000D1
:105590000020403FC0204020401F80000020403FAE
:1055A000C024402E4030C0000020403FC024402E88
:1055B00000300000000F00108020402240338002A5
:1055C0000020403FC0040004003FC0204020402095
:1055D000403FC02040204000000060202020203FAD
:1055E000C02000200020403FC024400B0030C020DD
:1055F0004020403FC020400040004000C03FC03C31
:105600000003C03C003FC0000020403FC00C4023CE
:10561000003FC020001F802040204020401F80000D
:105620000020403FC024402400180000001F8021BB
:1056300040214020E01FA0000020403FC024402621
:105640000019C0004018C02440244022403180008E
:1056500000300020403FC020403000000020003FCC
:1056600080004000403F80200020003E0001C00735
:105670000038002000380007C03C0007C038000098
:1056800000204039C0060039C0204000002000380A
:105690004007C0384020000000304021C02640387C
:1056A0004020C00000000000007FE04020402000BB
:1056B00000000070000C000380004000000000406B
:1056C0002040207FE000000000000020004000207B
:1056D000000000000000100010001000100010007A
:1056E0001000000000400000000000000000000268
:1056F000800540054003C0004020003FC004400436
:105700004003800000000003800440044006400085
:105710000000000380044024403FC000400000031C
:10572000800540054003400000000004401FC024E5
:105730004024402000000002E005500550065004BF
:105740002020403FC00440040003C000400000048B
:105750004027C00040000000000010001004102787
:10576000E00000000020403FC00140070004C004EA
:1057700040204020403FC000400040000007C004DF
:105780000007C0040003C00000044007C004400438
:105790000003C00040000003800440044003800078
:1057A00000041007F00450044003800000000003D0
:1057B000800440045007F00010044007C002400479
:1057C0000004000000000006400540054004C00041
:1057D00000000004001F8004400040000004000797
:1057E000800040044007C000400400070004C001DE
:1057F0008006000400060001C0070001C00600008A
:1058000000044006C0010006C00440000004100768
:105810001004E00180060004000000044005C006FA
:1058200040044000000000000004007BE040200035
:1058300000000000000000FFF00000000000004039
:10584000207BE004000000000040008000400020B9
:1058500000200040000000000000000000000000E8
:1058600000000000000000000000001FCC000C0041
:105870000000000000000008003000600008003058
:105880000060000000022003FC1E20022003FC1E1A
:10589000200220000000000E1811043FFF10840CAD
:1058A00078000000000F0010840F3800C00778183F
:1058B000840078000000780F8410C411240E980032
:1058C000E400840008080068007000000000000088
:1058D000000000000000000000000007E018182091
:1058E0000440020000000040022004181807E000F5
:1058F00000000000000240024001800FF001800221
:1059000040024000000080008000800FF80080000E
:1059100080008000000001000D000E00000000006B
:105920000000000000000000800080008000800077
:1059300080008000800000000C000C0000000000CF
:105940000000000000000000060018006001800652
:105950000018002000000007F008081004100408D8
:105960000807F000000000080408041FFC00040001
:10597000040000000000000E0C101410241044114C
:10598000840E0C000000000C181004110411041205
:10599000880C700000000000E00320042408241F8D
:1059A000FC0024000000001F981084110411041052
:1059B0008810700000000007F00888110411041816
:1059C000880070000000001C00100010FC13001C78
:1059D000001000000000000E3811441084108411E3
:1059E000440E38000000000700088C1044104408E2
:1059F0008807F00000000000000000030C030C000A
:105A0000000000000000000000000101060000008E
:105A10000000000000000000800140022004100887
:105A200008100400000220022002200220022002AE
:105A300020022000000000100408080410022001C9
:105A4000400080000000000E001200100C106C10CE
:105A5000800F00000003E00C1813E4142417C4089E
:105A60002807D000000004003C03C41C400740008D
:105A7000E4001C000410041FFC1104110411040EA6
:105A8000880070000003E00C1810041004100410CB
:105A9000081C10000010041FFC100410041004085F
:105AA0000807F0000010041FFC1104110417C410B3
:105AB000040818000010041FFC1104110017C01086
:105AC000000800000003E00C181004100410441C2F
:105AD000780040000010041FFC108400800080103B
:105AE000841FFC10040000100410041FFC1004109C
:105AF000040000000000030001100110011FFE104F
:105B0000001000000010041FFC110403801464182E
:105B10001C1004000010041FFC100400040004000A
:105B200004000C000010041FFC1F0000FC1F001FDD
:105B3000FC1004000010041FFC0C04030000E01023
:105B4000181FFC100007F0080810041004100408C7
:105B50000807F0000010041FFC1084108010801053
:105B6000800F00000007F0081810241024101C08F3
:105B70000A07F2000010041FFC1104110011C011EB
:105B8000300E0C000400000E1C1104108410841050
:105B9000441C3800001800100010041FFC100410F2
:105BA000001800000010001FF8100400040004108A
:105BB000041FF8100010001E0011E0001C007013FC
:105BC000801C0010001FC0103C00E01F0000E0100F
:105BD0003C1FC000001004180C163401C001C01690
:105BE00034180C100410001C00130400FC13041CD7
:105BF00000100000000804101C1064108413041C22
:105C000004101800000000000000007FFE40024069
:105C10000240020000000030000C00038000600021
:105C20001C0003000000004002400240027FFE0012
:105C30000000000000000000002000400040004084
:105C4000002000000000010001000100010001002F
:105C500001000100010000400040002000000000A1
:105C600000000000000000009801240144014401EC
:105C70004400FC000410001FFC0088010401040023
:105C80008800700000000000700088010401040119
:105C90000400880000000000700088010401041165
:105CA000081FFC0004000000F80144014401440105
:105CB0004400C800000000010401040FFC1104119D
:105CC0000411001800000000D60129012901290152
:105CD000C90106000010041FFC008401000100013E
:105CE0000400FC000400000104190419FC00040075
:105CF0000400000000000000030001010119011967
:105D0000FE0000000010041FFC0024004001B4014C
:105D10000C010400000000100410041FFC0004002B
:105D20000400000000010401FC0104010001FC0169
:105D300004010000FC010401FC00840100010001D9
:105D40000400FC0004000000F80104010401040147
:105D50000400F80000010101FF00850104010400B6
:105D60008800700000000000700088010401040138
:105D70000501FF00010104010401FC00840104018C
:105D80000001800000000000CC0124012401240156
:105D9000240198000000000100010007F80104013F
:105DA0000400000000010001F800040004000401E8
:105DB0000801FC0004010001800170000C001001CA
:105DC000600180010001F0010C003001C0003001D1
:105DD0000C01F0010000000104018C00740170014D
:105DE0008C01040000010101810171000E00180105
:105DF000600180010000000184010C0134014401B4
:105E000084010C0000000000000000000001003EC2
:105E1000FC400240020000000000000000FFFF0004
:105E200000000000000000400240023EFC010000B3
:105E30000000000000000060008000800040004082
:105E40000020002000000000000000000000000012
:105E50000000000000000000000000000000000042
:105E60000000000000000000000000000000000032
:105E70000000000000000000000000000000000022
:105E80000000000000000000000000000000000012
:105E900001001A00130010000D00090000000000AE
:105EA0000000000000000000000001001A001300C4
:105EB00001001A00100001001A000D0001001A0074
:105EC00009000000000000000000000000000000C9
:105ED0000000000000000000000002002C00220072
:105EE0001C0016001000010012000000000000005D
:105EF0000000000001002C00220001002C001C000A
:105F000001002C00160001002C0010000000000011
:105F10000000000000000000000000000000000081
:105F2000000000000300460037002C0022001A0089
:105F30000100160000000000000000000000010049
:105F400046003700010046002C000200230011002B
:105F5000020023000D00000000000000000000000F
:105F6000000000000000000000000000000004002D
:105F70006400500040003000240001001A000000BE
:105F8000000000000000000001006400500002005A
:105F9000320020000200320018000400190009003D
:105FA00000000000000000000000000000000000F1
:105FB0000000000000000000050086006C00560094
:105FC0003E002E0001001E00000000000000000046
:105FD0000000010086006C00020043002B0002005C
:105FE00021000F00020021000B0000000000000053
:105FF0000000000000000200220010000200220049
:106000000C000600AC0088006C004C003C00010055
:106010002200000000000000000000000200560006
:10602000440004002B001B0004002B00130004009C
:106030002B000F0000000000000000000000000026
:106040000000000000000000000000000700C40085
:106050009C007C0058004200020016002600000050
:10606000000000000000020062004E000400310049
:106070001F00020020000E00040027000D00000099
:1060800000000000000000000000040021000F00DC
:10609000010028000E000800F200C2009A006E0005
:1060A0005600020018002A00000000000000000056
:1060B00002007900610002003C0026000400280074
:1060C0001200040028000E00000000000000020082
:1060D0003D002700020029001300020029000F00E4
:1060E00009002401E800B6008400640002001A00E0
:1060F0002E0000000000000000000200920074006A
:1061000003003A00240004002400100004002400CE
:106110000C0000000000000002003B00250004000D
:1061200025001100040025000D000A005A0112018B
:10613000D8009A007A0002001C0032000000000023
:1061400000000000020056004400040045002B003F
:1061500006002B00130006002B000F000200570062
:106160004500010046002C0002002C001400020033
:106170002C0010000B0094014401FE00B4008C00C0
:1061800002001E00360000000000000000000400B5
:10619000650051000100500032000400320016007A
:1061A000030024000C000000000000000400510067
:1061B0003300040033001700080025000D000C0018
:1061C000D20172012201CE009E00020020003A009E
:1061D0000000000000000000020074005C000600E7
:1061E0003A00240004002E00140007002A000E00CC
:1061F000020075005D0002003B00250006002F0034
:10620000150004002B000F000D001402AC014E011C
:10621000F400B400020022003E0000000000000074
:106220000000040085006B0008003B00250008000A
:106230002C0014000C0021000B00000000000000E6
:1062400001003C00260004002D001500040022007F
:106250000C000E004502CD016D010501C5000300D3
:106260001A002E0042000000000000000300910010
:1062700073000400400028000B00240010000B00F5
:1062800024000C0001009200740005004100290068
:10629000050025001100050025000D000F008F02EC
:1062A0000B029F012701DF0003001A0030004600A7
:1062B00000000000000005006D00570005004100CF
:1062C00029000500360018000B0024000C00010016
:1062D0006E005800050042002A0007003700190030
:1062E000070025000D001000DD024D02C50145012B
:1062F000FD0003001A0032004A0000000000000008
:1063000005007A006200070049002D000F002B00F5
:10631000130003002D000F0001007B006300030049
:106320004A002E0002002C0014000D002E00100068
:1063300011002F038702FB016F011B0103001E00E8
:1063400036004E00000000000000010087006B00D6
:106350000A004A002E0001003200160002002A0046
:106360000E00050088006C0001004B002F000F009C
:106370003300170011002B000F0012008503D1021B
:1063800033028D01390103001E0038005200000065
:1063900000000000050096007800090045002B0071
:1063A00011003200160002002A000E0001009700C2
:1063B0007900040046002C00010033001700130090
:1063C0002B000F001300DF031B037302BD015501F7
:1063D00003001E003A005600000000000000030009
:1063E0008D007100030046002C0011002F001500E5
:1063F000090027000D0004008E0072000B0047000A
:106400002D00040030001600100028000E001400BB
:106410003D045D039D02E5018101030022003E0071
:106420005A00000000000000030087006B0003001A
:10643000430029000F00360018000F002B000F004A
:10644000050088006C000D0044002A00050037009C
:1064500019000A002C00100015008404A403CA02CD
:106460000002960104001C00320048005E0000009B
:106470000000040090007400110044002A00110084
:106480003200160013002E00100004009100750069
:1064900000000000000006003300170006002F0077
:1064A00011001600EA04EE030E033802BA010400DC
:1064B0001A0032004A0062000000000002008B0057
:1064C0006F0011004A002E0007003600180022005D
:1064D00025000D0007008C00700000000000000087
:1064E00010003700190000000000000017005405DC
:1064F00046045C036602D00104001E0036004E0014
:1065000066000000000004009700790004004B00C2
:106510002F000B003600180010002D000F000500A2
:1065200098007A000E004C0030000E003700190071
:106530000E002E0010001800C20596049203980267
:10654000020204001C00360050006A000000000037
:10655000060093007500060049002D000B00360070
:1065600018001E002E0010000400940076000E009B
:106570004A002E0010003700190002002F00110001
:1065800019003406FC04E803CE021A0204002000BD
:106590003A0054006E0000000000080084006A0009
:1065A00008004B002F0007003600180016002D00D1
:1065B0000F00040085006B000D004C003000160039
:1065C000370019000D002E0010001A00AA065A0507
:1065D0002604F202540204001E003A005600720023
:1065E000000000000A008E00720013004A002E0016
:1065F0001C003200160021002E00100002008F0047
:10660000730004004B002F00060033001700040045
:106610002F0011001B002407BC0568042803740226
:10662000040022003E005A0076000000000008002E
:1066300098007A00160049002D0008003500170068
:106640000C002D000F00040099007B0003004A009D
:106650002E001A00360018001C002E0010001C002E
:106660008107FB05A9046703950205001A003200A3
:106670004A0062007A0000000300930075000300E6
:1066800049002D000400360018000B002D000F00FB
:106690000A009400760017004A002E001F00370001
:1066A00019001F002E0010001D0003085F06F304F0
:1066B0008F03BD0205001E0036004E0066007E00FE
:1066C0000000070092007400150049002D00010031
:1066D0003500170013002D000F0007009300750010
:1066E00007004A002E002500360018001A002E0070
:1066F00010001E008908C7065D05D903E9020500E0
:106700001A0034004E00680082000000050091006D
:10671000730013004B002F000F0036001800170005
:106720002D000F000A00920074000A004C00300097
:1067300019003700190019002E0010001F0013095E
:106740003307AF050904190305001E003800520085
:106750006C00860000000D009100730002004A00EA
:106760002E002A003600180017002D000F0003002D
:10677000920074001D004B002F000100370019002B
:106780001C002E0010002000A109A30705065B04D1
:106790004D03050022003C00560070008A000000F6
:1067A0001100910073000A004A002E000A00360012
:1067B000180013002D000F0000000000000017005B
:1067C0004B002F0023003700190023002E0010007B
:1067D0002100330A17085F069304850305001E0095
:1067E0003A00560072008E00000011009100730004
:1067F0000E004A002E001D00360018000B002D0070
:106800000F0001009200740015004B002F001300D0
:10681000370019002E002E0010002200C90A8F0830
:10682000BD06CF04C103050022003E005A007600D9
:10683000920000000D00910073000E004A002E002F
:106840002C00360018003B002E00100006009200BD
:10685000740017004B002F000700370019000100DB
:106860002F00110023003C0B020914070605DA0370
:1068700006001E0036004E0066007E0096000C00EA
:10688000970079000C004B002F00270036001800FD
:1068900016002D000F00070098007A001A004C0027
:1068A00030000E003700190029002E0010002400CF
:1068B000DA0B82097A074A051E0406001800320026
:1068C0004C00660080009A000600970079000600E0
:1068D0004B002F002E003600180002002D000F0084
:1068E0000E0098007A0022004C0030000A003700A9
:1068F000190040002E00100025007C0C060AC80775
:106900009205480406001C00360050006A0084000E
:106910009E00110098007A001D004A002E003100F0
:106920003600180018002D000F00040099007B00AD
:106930000E004B002F000A00370019002E002E0019
:1069400010002600220D8E0A3608DE0576040600A9
:1069500020003A0054006E008800A2000400980055
:106960007A000D004A002E003000360018002A0080
:106970002D000F00120099007B0020004B002F001B
:106980000E003700190020002E0010002700CC0D4B
:10699000FC0AA8082E06C60406001A00360052009B
:1069A0006E008A00A60014009300750028004B00BA
:1069B0002F002B00360018000A002D000F000400E5
:1069C0009400760007004C003000160037001900D4
:1069D00043002E00100028007A0E8C0B1E09820640
:1069E000FC0406001E003A00560072008E00AA0049
:1069F00013009400760012004B002F002200360096
:106A0000180014002D000F000600950077001F00ED
:106A10004C0030002200370019003D002E0010000D
:106A200001020408102040801D3A74E8CD87132627
:106A30004C982D5AB475EAC98F03060C183060C003
:106A40009D274E9C254A94356AD4B577EEC19F2385
:106A5000468C050A142850A05DBA69D2B96FDEA130
:106A60005FBE61C2992F5EBC65CA890F1E3C78F07B
:106A7000FDE7D3BB6BD6B17FFEE1DFA35BB671E26E
:106A8000D9AF4386112244880D1A3468D0BD67CE31
:106A9000811F3E7CF8EDC7933B76ECC5973366CCFF
:106AA00085172E5CB86DDAA94F9E214284152A54B1
:106AB000A84D9A2952A455AA49923972E4D5B773C0
:106AC000E6D1BF63C6913F7EFCE5D7B37BF6F1FF0D
:106AD000E3DBAB4B963162C495376EDCA557AE4114
:106AE00082193264C88D070E1C3870E0DDA753A6EA
:106AF00051A259B279F2F9EFC39B2B56AC458A09E2
:106B0000122448903D7AF4F5F7F3FBEBCB8B0B1690
:106B10002C58B07DFAE9CF831B366CD8AD478E0177
:106B20000000011902321AC603DF33EE1B68C74B9F
:106B30000464E00E348DEF811CC169F8C8084C7103
:106B4000058A652FE1240F2135938EDAF0128245F4
:106B50001DB5C27D6A27F9B9C99A09784DE472A6B4
:106B600006BF8B6266DD30FDE29825B31091228866
:106B700036D094CE8F96DBBDF1D2135C833846407D
:106B80001E42B6A3C3487E6E6B3A2854FA85BA3DBE
:106B9000CA5E9B9F0A15792B4ED4E5AC73F3A757B9
:106BA0000770C0F78C80630D674ADEED31C5FE18B3
:106BB000E3A5997726B8B47C114492D92320892E75
:106BC000373FD15B95BCCFCD908797B2DCFCBE61DF
:106BD000F256D3AB142A5D9E843C3953476D41A2D3
:106BE0001F2D43D8B77BA476C41749EC7F0C6FF6F2
:106BF0006CA13B52299D55AAFB6086B1BBCC3E5A85
:106C0000CB595FB09CA9A0510BF516EB7A752CD728
:106C10004FAED5E9E6E7ADE874D6F4EAA85058AF30
:106C200057E59295EE6615FB432E3D7646405E2075
:106C30002D4A98B06456646A6882DACE8C4E08B7E2
:106C40003D5BCA25333A3AED8C7C05636978686B05
:106C50006D66A14C035BBF93A9B6C2E1782B8BCEC6
:106C60004E2BEF7BCED69318639627F3A388D7EAF3
:106C70009E5EB86176AA4FBB9894FCB3056260999A
:106C8000113C4F323DA31ABBCAB4DDE153EF9CA4C3
:106C9000D4D4BCBED2ABF7F25DE60E6DDD35C84A8A
:106CA00008AC6250DB86A069A5E7E5798730D3752B
:106CB000FB7E9FB4A998C0E2E4DA6F0075E85760E4
:106CC000E315AD7D9E0267B6761191C96F1CA5359F
:106CD000A115F58E0D6630E39991DA46A8DFC868F4
:106CE000E0EA6CB46EBEC393CD1BE8C9152BF55713
:106CF0002AC3D477F225097B29AD9198D81FB3B662
:106D000032306E56EF60DE7D2AADE2C1E0829C2516
:106D1000FBD8EE28C0B40A066ABEF9A70443D18A9C
:106D20008A20F27B591B78B9509C2645AB3C1CDE6F
:106D30005034FEB9DCF16F4D925E1A156C13695E2A
:106D400071C1568CA37D3A9EE5EFDA673846723DF5
:106D5000B781A70D623E8133C8B76210AC1FF6EA57
:106D60003C987300A79871F8EE6B123FDA2557D262
:106D700069B1784A79C475FB71E91E789F2226E4CF
:106D8000E63BF35F31DAB0A414412D6F2751317621
:106D900071DEC1FAF2A8D929A4F7B11EEE127899D2
:106DA0003CC13B744FA1FC6280CD80A1F739A33870
:106DB000EB6A351ABBAEE268AA07AF23B572582951
:106DC0002FA37D864814E835230FFA67DDE61912F4
:106DD00089E700033AF2DDBF6E54E608BC6A6093AF
:106DE0000F838B2265DF2765D5C7EDFEC97BABA27C
:106DF000C2753260BE073D7947F64537A8BC59F3E6
:106E0000BF19487B09910EF701EE2C4E8F3EE07EB4
:106E1000767244A334C2D993CCA92582716649B550
:106E2000705E5870FDE0CA73BB6359053671812CE2
:106E30003A1087D8A9D3240104603CF14968EA08D4
:106E4000F9F577AE34199DE02BCADF13520FE41920
:106E5000C482D3923C18FB5A2766F03DB23F2E7B8A
:106E60007312DD6F87A0B6CD6BCE5F9678B85B15D9
:106E7000F79C8CEEBF0B5EE35432A327226CE87DB7
:106E80009DA1A409762ED163CBC12303D16FC3F298
:106E9000CBE12E0D20A07ED182A0F2D7F24B4D2A5D
:106EA000BD2071417C45E472EBAF7CAAD7E885CD6B
:106EB000743256BA32DCFB59C02E567F7C13B8E9C7
:106EC00097D7160E3B9125F2CB86FE59BE5E3B410D
:106ED0007C7164E9EB79164C566127F2C8DC6521B8
:106EE000EFFE7433B71AC957D2DD71152E412D321A
:106EF000EEB8F9E1663AD1DA6DA51A5FB8C034F59B
:106F000023FEEEAFAC4F7B197A2B786CD75080C93B
:106F1000EB08993B651FC64C1F9C6A786B9DA4D8F3
:106F20007074025BF8A324C9CAE50690FE9B87D063
:106F3000AAD10C8B7F8EB6F9B1AEBE1C0A55EFB844
:106F4000657C98CE6017A33D1BC4F7979ACACF14EF
:106F50003D0A52741AF7421B3E6BFCB6C8B9EB37B8
:106F6000FBF2D2909AEDB08DC0F898F9CE55FD8E17
:106F700041A57D17181E7AF0D60681DA1D917F860D
:106F8000CEF5751D293F9F8EE97D947B6B8C1A0C85
:106F9000098DF3C5E2C5DB2DD365DB781CB57F0613
:106FA00064F702CDC63973DB656DA0522526EE313C
:106FB000A0D179560B7C1EB55419C2574166BEDC70
:106FC000461BD110590721F041CA716247DFF8769C
:106FD000D65E007A251702E43A790769874EF37680
:106FE000464CDF594832466FC211D47EB523DD7559
:106FF000EB0BE595937BD5287306C8641AF6B6DAD1
:107000007FD724BA6E6A2D33AF09079E9F3144772C
:107010005C7BB1CCBBFEC84E8D95771A7F35A05DE9
:10702000C7D41D18919CD096DAD104D85B2FB892A2
:107030002F8CC3C37DF2EE3F636C8CE6F21FCC0B4A
:10704000B2F3D99CD5E70576DEB48888A2332E75D5
:107050000DD751118BF7C5AB5FAD4189B2446F5F5E
:10706000652948D6A9C55F072C9A4D6FEC28798F02
:107070003F5750FDF07ED94D22E86A32A8524C921B
:10708000436AAB19845D2D69F79FDF21E05D4D46B2
:107090005AA020FE2B965465BECD85343CCAA5DC93
:1070A000CB975D540F54FDADA059E334C7615FE742
:1070B00034B1297D89F1A6E17602362052D7AFC6D8
:1070C0002BEEEB1B65B87F030508A3EE0A0C0E0937
:1070D0000B0D081010080A0C3031323334353637B6
:1070E000383941424344454640305800303132330C
:1070F000343536373839616263646566403078000C
:107100002071000800000020580100006C010008F8
:10711000A07100085801002050B50000C801000807
:107120002143FFFF021F7F13206C82089A270C5A0D
:10713000310C1A3E081A4D041A5D045A6E145A8016
:10714000085A94085AAA085AC2085ADC085AF80879
:107150004B166D085A36085A58085A7C085AA20825
:107160005ACA085AF4084B206E085A4E085A7E082C
:107170005AB0085AE4084B1A6F085A52085A8C0839
:107180005AC8084B0670085A46085A8808011CC09D
:107190000D7F415D5D5D417F1F1115111F000000D6
:0400000508000131BD
:00000001FF
